:020000040800F2
:10000000100600209D3D0008E53C0008E73C000884
:10001000E93C0008EB3C0008ED3C00080000000053
:10002000000000000000000000000000EF3C00089D
:10003000F13C000800000000F33C0008F53C00081B
:10004000DD3D0008E13D0008E53D0008E93D000810
:10005000ED3D0008F13D0008F53D0008F93D0008C0
:10006000FD3D0008013E0008053E0008093E00086D
:100070000D3E0008113E0008153E0008193E00081C
:100080001D3E0008213E0008253E0008293E0008CC
:100090002D3E0008313E0008353E0008393E00087C
:1000A0003D3E0008413E0008453E0008493E00082C
:1000B0004D3E0008F73C0008553E0008593E000838
:1000C0005D3E0008613E0008653E0008693E00088C
:1000D0006D3E0008713E0008753E0008793E00083C
:1000E0007D3E0008813E0008853E000800000000BB
:1000F0000000000000000000000000000000000000
:1001000000000000000000000000000000000000EF
:1001100000000000000000000000000000000000DF
:1001200000000000000000000000000000000000CF
:10036000000000000000000000000000820082C1C8
:100370008200835382008354820083558200835617
:1003800082008357820083588200829782008359BB
:100390008200835A82008347820083478200835B06
:1003A000820082248200835C8200835D8200835EFF
:1003B00082008347820083478200835F82008360DC
:1003C00082008361820083478200834782008362C8
:1003D00082008363820083648200834782008347B4
:1003E0008200834782008347820083477214500251
:1003F000A6CFCA5007C75007A686CA500CC7500CD4
:10040000A695CA5011C75011721A50167218501B77
:100410004FCD82FF35F00000A608AE5000CD80EB36
:1004200035010000A602CD81AECD81F89AA608AEB6
:100430005000CD83315FCF000CCE000CA3006425AB
:10044000F8A608AE5000CD83435FCF000CCE000C61
:10045000A3006424D820F6B7044500024504033302
:1004600003909372A9000490BF0092C600B4039257
:10047000C700B602A5802716B602A5102705F6BA52
:10048000042003F6B403F7CD831FBA042005CD83FF
:100490001FB40390F71C0003B602A5402705F6BA67
:1004A000042003F6B403F7B602A520270792C6007E
:1004B000BA04200592C600B40392C7008188A6083A
:1004C0002000887B02887B02891E061F045F97FE3E
:1004D0001F0685848188A600200588A60420008840
:1004E000897B04887B04891E081F045F971F08FE10
:1004F0001F061E085C5CFE1F08858481891E05BFDF
:10050000001E07BF02200B891E05BF041E07BF0681
:1005100020001E031F07855B04814D270D4A27110C
:100520004A27174A271E4A272A81A6FCCD83162070
:100530001BA6F3CD831648482012A6CFCD83164EB6
:10054000A4F02008A63FCD8316CD8338CA50A0C79B
:1005500050A081A6FCC450A1C750A1B600CA50A1AA
:10056000C750A1813F0090AE03E74FAE000FCD8290
:100570004335010000A601CD82D4A601CD82E572EB
:100580001052575F5CCC82F282620003000C0000C4
:100590008A84A4BF8886CD8169CD816E5F5CCD825F
:1005A000F2CE000C5CCF000CCD819BCD819080B74A
:1005B00001909EC75262909FC75263CD8328A68F39
:1005C000C45250BA01C75250B600C752648189FE66
:1005D0009093855C5C905D271289FEBF00855C5C12
:1005E000515A926F005A2AFA5120E38190AE821C30
:1005F000200A931C000290FE90FD909390A3822409
:1006000026F081AE000EF6A1032409A601CB000E50
:10061000C7000E80725F000E80CD81515202BF086C
:10062000BE081F01965CA601CD836520F3AE03FFD3
:1006300094CD834A5D2703CD8280CD8080CC834DCD
:100640003D002705CA5254200443C45254C7525493
:10065000814D2705721052508172115250819F4373
:10066000C752559E43A41EC7525681B700CD830B77
:10067000CA50C6C750C681A6E7C450C6C750C6B642
:100680000081C450A0C750A0B60081909372A90009
:100690000290F6819EC752609FC7526181B700F6F3
:1006A000BA00F78148484EA4F0818985CD82AD43D8
:1006B000F4F781CC83505F5C81CC833E9D20FD802C
:1006C000808080808080808080808080808080802A
:1006D0008081000000000000000000000000000019
:1006E000000000000000000000000000000000000A
:1006F00000000000000000000000000000000000FA
:1007000000000000000000000000000000000000E9
:1007100000000000000000000000000000000000D9
:10236000000000000000000000000000F8B5DFF8E9
:102370004C4800224FF48041204600F083FC0022AC
:102380004FF40041204600F07DFC01224FF48071A3
:10239000204600F077FCDFF8285805F1840600207D
:1023A0007080DFF820180870DFF81C1808800BE038
:1023B00000F0F7FC00F03CFE00F02CFE00F041FEC7
:1023C00000F05FFE0120B070B0780146182914D0EB
:1023D000B279002A08D0F279002A05D0327A002A90
:1023E00002D0727A002A1DD13220B071F0713072A1
:1023F00070726420DFF8D41708704FF40051204643
:1024000000F039FCC0F10102D2B24FF40051204675
:1024100000F038FC00224FF480712046BDE8F840FF
:1024200000F030BC1729E8D01B28CDD8DFE810F029
:102430001C001E002A002F003D0055005E00880091
:10244000CE00D300E60009011E01CD01DA01F6013C
:102450001E024C0268028B02B102C502D2021D00AC
:102460001D00280340015301A2E7ADE700F00EFE76
:10247000002804D000F0E1FD0220B070A4E70220A3
:10248000B070A1E700F0F4FD0320B0709CE70222D9
:102490001221082000F02FFE7071002802D00320C6
:1024A000B07091E70420B0708EE7012070814FF486
:1024B000FF403061A02028702A4601214FF4FF40E0
:1024C00000F028FF002805D0B079401EB07104202C
:1024D000B07079E70520B07076E700F0AEFD4FF4FC
:1024E0007A7000F08DFC0620B0706DE701207081DD
:1024F0004FF4FF403061002028702A4601214FF43C
:10250000FF4000F06DFF002802D00620B0705BE7AE
:102510002878A02801D0A2280FD14FF4804120466E
:1025200000F0A9FBC0F10102D2B24FF48041204675
:1025300000F0A8FB0820B07046E70420B07043E725
:102540000C20708144F6CD003061FF202870687047
:1025500000216980287168710846E880A8602873A6
:102560004FF48041204600F086FBC0F10102D2B258
:102570004FF48041204600F085FB2A46718930697E
:1025800000F02EFF002802D00720B0701CE7287A48
:10259000702818D1687A642815D1A87A312812D108
:1025A000E87A29280FD14FF48041204600F063FBE0
:1025B000C0F10102D2B24FF48041204600F062FB2C
:1025C0000820B07000E71720B070FDE600F09EFE16
:1025D0000920B070F8E60120708147F699703061EB
:1025E000082129702A46012100F094FE002802D01B
:1025F0000920B070E8E60A20B070E5E6012070819D
:1026000045F25F073761002028702A4601213846CD
:1026100000F0E6FE002802D00A20B070D4E6287848
:1026200000F00A000A2809D10D20B07005F19C02C3
:102630000B214FF4904000F0D3FEC5E61A20B07095
:10264000C2E60120708145F2620030615621297096
:102650002A46012100F05EFE002804D000F0EDFCC7
:102660000020B070B0E60C20B070ADE601207081A3
:1026700045F262003061AE2129702A46012100F046
:1026800049FE002811D04FF48041204600F0F3FAB3
:10269000C0F10102D2B24FF48041204600F0F2FABC
:1026A00000F0CBFC0020B0708EE60A20B0708BE604
:1026B0000120708145F264003061AE2129702A4604
:1026C000012100F027FE002802D01A20B0707BE61E
:1026D0001B20B07078E60120708145F26400306103
:1026E000562129702A46012100F014FE00280FD03F
:1026F0004FF48041204600F0BEFAC0F10102D2B290
:102700004FF48041204600F0BDFA1B20B0705BE61C
:102710000120708145F25F073761002028702A464A
:102720000121384600F05CFE002802D01A20B0706B
:102730004AE62878000745D50B20B07045F25B00CB
:102740007061802131703246012100F0E3FD45F2D5
:102750005C0070617F2131703246012100F0DAFDAA
:102760004FF49040706100203070324601214FF4E8
:10277000904000F0CFFD002806D01A20B07003E092
:102780000121384600F02CFE307840073246F7D55C
:1027900001214FF4904000F023FE3078002801D052
:1027A0001A20B07000F0CAF900F085FE05F19C0215
:1027B0000B214FF4904000F013FE4FF47A7000F0BC
:1027C0001FFB01E61A20B070FEE5002070814FF477
:1027D000004030614FF40050B0810220F0701020B2
:1027E000B070F1E545F25B007061F178002901D12C
:1027F00000222A70012901D140222A70022901D128
:10280000012129702A46012100F084FD002802D010
:102810000E20B070D8E50F20B070D5E545F25C0011
:102820007061F178002901D1FF222A70012901D1BC
:10283000BF222A70022901D1FE2129702A460121D6
:1028400000F068FD002802D00F20B070BCE5F078E1
:10285000002801D11121B170012801D11221B170DC
:1028600002287FF4B1AD1320B070ADE545F25F07EB
:1028700077610020307032460121384600F0B0FD0B
:10288000002805D01020B070F079401EF0719BE553
:102890003078252108420FD04FF40041204600F047
:1028A000EAF9C0F10102D2B24FF40041204600F033
:1028B000E9F91020B07087E5400602D50E20B0700F
:1028C00082E51020B0707FE5C14871890A180121A6
:1028D000306900F01FFD002802D01120B07073E5B0
:1028E0007089411CB289914207DA1021B170401CF5
:1028F00070813069401C306166E51420B07063E57A
:10290000B34871890A180421306900F003FD0028DA
:1029100002D01220B07057E57089001D7081B18916
:1029200080B288420CD21022B270081A042803DA4E
:102930000020F0700E20B0703069001D306143E55A
:102940001420B07040E5A24871890A18402130690E
:1029500000F0E0FC002805D01320B070307A401E53
:10296000307231E5708940307081B18980B288421F
:102970000CD21022B270081A402803DA0120F0703D
:102980000E20B0703069403030611DE51520B07008
:102990001AE545F25F077761307800F0F500307096
:1029A00032460121384600F0B5FC002802D0142040
:1029B000B07009E51820B07006E5002070814FF472
:1029C000004030614FF40050B0810020307116207B
:1029D000B070F9E400207081024602E04255481CC4
:1029E0007081718908464028F8DB2A464021306909
:1029F00000F0F6FC002805D01620B070707A401E5A
:102A00007072E1E400207081714B0AE0425D377919
:102A100000EB8710C05C824201D01720B070481CC8
:102A2000708171890846402802DAB2899142EDD35B
:102A3000B07817283FF4C8ACB08940280EDB403886
:102A4000B08180B200283FF4BFAC306940303061C3
:102A50003079401C30711620B070B5E40020B08190
:102A60004FF40041204600F006F9C0F10102D2B255
:102A70004FF40041204600F005F91920B070A3E49E
:102A800000F019FD45F25B0070618021717005F165
:102A900085073A46012100F03DFC45F25C0070617B
:102AA0007F2171703A46012100F034FC002144F688
:102AB000010000F04AFDFF2144F6020000F045FD50
:102AC000002144F6030000F040FDFF2144F604001D
:102AD00000F03BFD002144F6050000F036FDFF212B
:102AE00044F6060000F031FD002144F6070000F036
:102AF0002CFDFF2144F6080000F027FD002144F6DC
:102B0000090000F022FDFF2144F60A0000F01DFD3F
:102B10004FF490407061AA2070703A4601214FF442
:102B2000904000F0F7FB002801D01920B0704FF45E
:102B30007A7000F065F91420B07045E438B50020D3
:102B40008DF8000000AA012145F25B0000F0E2FBD5
:102B50000028F7D1FF208DF8000000AA012145F2DE
:102B60005C0000F0D7FB0028F7D100254FF480442B
:102B700002E0641C6D1CADB2B5F5207F1DDA0020AB
:102B80008DF8000013482A180121204600F0C2FBEE
:102B90000028F7D19DF800004007EAD400AA0121DF
:102BA00045F25F0000F01CFC08480178491E0170E6
:102BB00001780029EED16421017031BD0008014087
:102BC0000000002008020020FE010020A9000020D3
:102BD0006C030008EC000008F0B40023CC7804F08B
:102BE0000F02E40601D58C7822430C88E4B2002C55
:102BF0001CD0046803E0482D00D106615B1C082B43
:102C000013D2012505FA03F635460F882F40AF424F
:102C1000F4D19D000F27AF40BC4302FA05F52C43C9
:102C2000CD78282DE7D14661E8E704600B88FF2BBB
:102C30001FDD4468002319E0012503F1080605FAA9
:102C400006F635460F882F40AF420ED19D000F2764
:102C5000AF40BC4302FA05F52C43CD78282D00D1B6
:102C60004661CD78482D00D106615B1C082BE3D36B
:102C70004460F0BC70470022C068084200D00122C6
:102C800010467047002A01D00161704741617047CA
:102C900070B4194A002801D5946900E01468C0F3A3
:102CA000034583B200F44016B6F5401F06D124F068
:102CB0007064156825F0706515600FE0C60206D5D2
:102CC000032606FA05F5AC4344F0706406E0450DB2
:102CD0002D0103FA05F5AC4344F07064002904D0DB
:102CE000410D090103FA01F10C43002801D594615B
:102CF00000E0146070BC70470400014070B402F042
:102D00000F030F24082908DA05688E00B44025EA6D
:102D10000404B3402343036009E04568A1F10806B9
:102D2000B600B44025EA0404B3402343436093064D
:102D300007D5012303FA01F1D20601D5016100E0B4
:102D4000416170BC7047012202FA01F101617047D4
:102D5000012202FA01F1416170473822082124481A
:102D6000CCE710B5224C08212046FFF7F1FF0322E3
:102D700008212046BDE81040C0E711B581B006E04B
:102D8000019C204600F03CF80198001B019001983E
:102D9000002805D0019817498842F1D3164CF0E776
:102DA00013BD1648016821F002010160016841F07D
:102DB0000401016001684908490001600021816047
:102DC00070470E4900EBC002D0004860086840F030
:102DD0000100086070470948006800F480307047BF
:102DE0000648016849084900016000218160704778
:102DF000000C0140410D0300400D030010E000E015
:102E000080B5FFF7DEFFFFF7E6FF0028FBD0BDE847
:102E10000140E5E710B594B00121084600F0B4FB8D
:102E20000121084600F0C6FB884C204600F0D4FB88
:102E300008A800F062FC8648089010200A90002044
:102E40000B900C9080200D904FF480700E904FF4FA
:102E500080600F90002010904FF48050119000205F
:102E6000129008A9204600F02DFC0121204600F018
:102E700051FC01A800F0EBFC0020019002908DF8BD
:102E80000C0001A94FF0804000F06CFC04A800F099
:102E9000E7FC6020ADF810000120ADF81200002022
:102EA000ADF816000220ADF8180004A94FF08040DC
:102EB00000F0A0FC08214FF0804000F00AFD012145
:102EC0004FF0804000F0F9FC01224FF480514FF0A8
:102ED000804000F0E5FC01214FF0804000F0CAFC8A
:102EE00001215C48FFF7D4FE4FF40060ADF800000C
:102EF0001C208DF8030003208DF8020000A956481D
:102F0000FFF76AFE14B010BD10B58CB00121084661
:102F100000F03AFB0121042000F04CFB504C20460D
:102F200000F05AFB00A800F0E8FB4E48009000209B
:102F3000029003900490802005904FF480700690DA
:102F40004FF480600790002008904FF400500990E3
:102F500000200A9000A9204600F0B4FB0121204681
:102F600000F0D8FB3D48018C4FF6EE721140018411
:102F7000018B018C4FF4817202834FF6FD72114078
:102F800041F02001018401894FF60872114041F09F
:102F9000E4010181018C41F011010184818941F436
:102FA00000718181012100F065FC0CB010BD2C4A3C
:102FB00013685B085B0013605060D160106840F0DC
:102FC00001001060704728490A68920703D4401E28
:102FD00080B20028F8D102224A6070472349088352
:102FE0000120088070470122204B1A80174A13687D
:102FF0005B085B0013605060D160106840F0010016
:1030000010607047184801688901FCD54FF00071C5
:103010004160704710B5104C04220B212046FFF789
:103020006DFE382208212046BDE81040FFF766BE3D
:10303000282206210848FFF761BE06210648FFF74F
:1030400082BE06210448FFF783BE000080000240D4
:103050004000004000021800000C01400008004041
:103060000800024034080040000002401400004004
:10307000A1480178002903D101210170FFF7CABEE0
:10308000704700209D49C884FFF73EBF10B5FFF789
:1030900068FE4FF47A70FFF770FE00240CE0FFF733
:1030A0005CFE4FF4FA70FFF768FEFFF75AFE4FF42C
:1030B000FA70FFF762FE641C042CF0DB00240AE0C7
:1030C000FFF74BFEFA20FFF758FEFFF74AFEFA2003
:1030D000FFF753FE641C042CF2DBFFF73EFE884929
:1030E0000220FFF764FF4FF6FF70FFF76CFF401EF2
:1030F0008041C00F10BD38B5804CE38C002B0ED141
:10310000482393FBF0F31D46ADB24343C3F148039C
:10311000B3EB500F01DB6D1CADB2EB019BB203FBB7
:1031200001F0811100EB5161C9112184A0EBC110A4
:10313000402802DB208C401C208403FB02F081111C
:1031400000EB5161C9116184A0EBC110402802DB82
:10315000608C401C6084208C618C0818A08480B234
:1031600000EBD00080B2FFF739FFA08C4008A084AC
:10317000002032BD2DE9F84304460D4616465F4F48
:10318000DFF88081DFF8789100E0761E388C388097
:10319000B91C00226B1E02E021F8020B5B1E5BB221
:1031A000002B0BD4A4464CFA03FC5FEACC7CF3D58D
:1031B000B7F822C021F802CB521CEFE7D20703D5A3
:1031C000788C21F8020B01E021F8020B0020088026
:1031D0003946E81C80B2FFF706FFFFF713FF4946A8
:1031E0000220FFF7E4FE4FF6FF70FFF7ECFE4FF40E
:1031F0000041D8F80C20120402D5C8F8141001E0E0
:10320000C8F81010D8F80C20120402D5C8F8141011
:1032100001E0C8F8101000280ED14FF4804140465C
:10322000FFF729FDC0F10102D2B24FF480414046C0
:10323000FFF728FD012017E0B88CB9F8021088428A
:1032400011D24FF480414046FFF715FDC0F1010255
:10325000D2B24FF480414046FFF714FDB6B2002EC3
:1032600093D1022000E00020BDE8F283F8B50546C6
:103270000E460024224F39460A20FFF798FE4FF6EB
:10328000FF70FFF7A0FE21462970002831D01B49AE
:103290008A8C388890422CD220460FE0831937F868
:1032A0001330934209D22B784FF0010CC0F1070E76
:1032B0000CFA0EFC4CEA03032B70401C0828EDD3DB
:1032C0004FF40045104E3068000401D5B56000E0B1
:1032D0007560488C0880204648800220FFF783FEF6
:1032E000FFF790FE3068000401D5B56002E075601C
:1032F00000E001242046F2BD08020020D801002091
:10330000AC000020000801400C08014064220321A9
:1033100000202FE72DE9F84380460C461546002C87
:1033200059D0002D57D0002602E0B844BE19B6B2DD
:103330002046864251DA801BFF2801DDFF2701E08D
:10334000A71BFFB240468DF800004FEA18208DF809
:1033500001004FEA18408DF802004FEA18608DF81E
:103360000300642203210220FFF704FF002832D16A
:10337000002208213846FFF7FDFE00282BD100224D
:1033800008210098000CC0B2FFF7F4FE002822D1FB
:10339000002208210098000AC0B2FFF7EBFE0028C7
:1033A00019D1002208210098C0B2FFF7E3FE0028DF
:1033B00011D14FF0000901E009F101095FFA89F923
:1033C0004846B842B1DA642208218019405DFFF70F
:1033D000D1FE0028F0D0012000E00020BDE8F283FB
:1033E0002DE9F84380460C461546002C5ED0002D92
:1033F0005CD0002602E0B844BE19B6B22046864230
:1034000056DA801BFF2801DDFF2701E0A71BFFB272
:1034100040468DF800004FEA18208DF801004FEA71
:1034200018408DF802004FEA18608DF803006422FE
:1034300003210120FFF79EFE002837D1002208213A
:103440003846FFF797FE002830D100220821009867
:10345000000CC0B2FFF78EFE002827D10022082101
:103460000098000AC0B2FFF785FE00281ED1002296
:1034700008210098C0B2FFF77DFE002816D1012177
:103480007019FFF7F3FE002810D14FF0010901E099
:1034900009F101095FFA89F94846B842ABDA02211D
:1034A00080194019FFF7E2FE0028F1D0012000E06A
:1034B0000020BDE8F28380B500F033F8002144F627
:1034C000010000F042F8FF2144F6020000F03DF850
:1034D000002144F6030000F038F8FF2144F6040010
:1034E00000F033F8002144F6050000F02EF8FF212B
:1034F00044F6060000F029F8002144F6070000F029
:1035000024F8FF2144F6080000F01FF8002144F6DB
:10351000090000F01AF8FF2144F60A00BDE8044053
:1035200013E080B580208DF8000000AA012145F24B
:103530005B00FFF7EFFE7F208DF8000000AA01215D
:1035400045F25C00FFF7E6FE01BD13B5044600201E
:103550008DF8000001AA01212046FFF7DBFE4FF4A1
:10356000FA70FFF74DFC00AA01212046FFF738FF53
:103570009DF800009DF804108842EBD14FF4FA70DA
:10358000FFF73EFC13BD0000104A0029116802D06D
:1035900008431060704721EA0000106070470C4A31
:1035A0000029116802D008431060704721EA00002A
:1035B00010607047074A0029116802D00843106064
:1035C000704721EA000010607047000014100240AC
:1035D000181002401C10024001684FF6FE721140A4
:1035E00001600021016041608160C1604F498842F3
:1035F00005D14F48016841F00F01016070474D4906
:10360000884205D14A48016841F0F00101607047E5
:103610004949884205D14648016841F4706101601A
:1036200070474649884205D14148016841F47041DC
:10363000016070474249884205D13D48016841F424
:103640007021016070473F49884205D138480168C0
:1036500041F47001016070473B49884205D134480C
:10366000016841F07061016070473849884205D1B6
:103670003748016841F00F010160704735498842C1
:1036800005D13348016841F0F001016070473249CB
:10369000884205D12E48016841F47061016070478D
:1036A0002E49884205D12A48016841F470410160E1
:1036B00070472B49884204D12548016841F47021A4
:1036C0000160704702686FF30E128B681A430B6A31
:1036D0001A430B691A434B691A438B691A43CB6926
:1036E0001A434B6A1A438B6A1A430260CA684260E3
:1036F0000A6882604968C1607047002101604160CA
:103700008160C160016141618161C16101624162A9
:10371000816270470029016803D041F00101016016
:1037200070474FF6FE72114001607047080002407A
:10373000040002401C0002403000024044000240ED
:10374000580002406C000240800002400804024021
:10375000040402401C0402403004024044040240BD
:103760005804024010B40388DFF88421904212D03C
:10377000DFF89441A0420ED0B0F1804F0BD0DFF8BB
:103780007441A04207D0DFF87041A04203D0DFF8B7
:103790006C41A04204D14FF68F7423404C882343E0
:1037A000DFF85C41A04208D0DFF85841A04204D0C5
:1037B0004FF6FF442340CC88234303808B888385C6
:1037C0000B88038590420FD0DFF83C2190420BD04C
:1037D000DFF83821904207D0DFF83421904203D03F
:1037E000DFF83021904201D1097A018601218182DE
:1037F00010BC704770B4028C4EF6FF731A400284FE
:10380000048C8288838B48F6FF452B400D8843EA61
:1038100005234DF6FF752C400D894E88354344EA4B
:103820000534DFF8CC50A84203D0DFF8DC50A842C2
:1038300005D14BF6FF752A408D8942EA85128280B8
:103840008383C988A0F84010048470BC70474FF689
:10385000FF71818000210180C18041800172704729
:103860000021018041808180C1800181418181816D
:10387000C18170470029018803D041F00101018016
:1038800070474FF6FE72114001807047002A82890E
:1038900002D011438181704722EA01018181704782
:1038A000002A828902D011438181704722EA0101F6
:1038B000818170470185828270470029018803D089
:1038C00041F08001018070474FF67F721140018006
:1038D0007047828B4FF2FF731A4042EA01218183C5
:1038E0007047C94301827047C94301827047000095
:1038F000002C01400004004000080040000C004083
:10390000001000400014004000340140004001401D
:10391000004401400048014080B53948016841F049
:10392000010101604168374A114041600168364A2F
:1039300011400160016821F480210160416821F497
:10394000FE0141604FF41F01816000F005F84FF067
:1039500000602E49086001BD00BF82B000200190C8
:1039600000902748016841F480310160016801F44A
:10397000003100910199491C01910099002903D15E
:103980000199B1F5A06FF1D10168490C01F0010175
:1039900000910099012930D11D490A6842F01002B6
:1039A0000A600A68920892000A600A6842F00202FD
:1039B0000A604168416041684160416841F480614A
:1039C0004160416821F47C114160416841F4E81193
:1039D0004160016841F08071016001688901FCD596
:1039E0004168890889004160416841F002014160F5
:1039F000416801F00C010829FAD102B070470000BB
:103A0000001002400000FFF8FFFFF6FE08ED00E0A6
:103A10000020024038B500F079F800F0D2F800F04C
:103A200095F800213448FFF725FF344C344D0EE063
:103A3000FEF79CFC2878182804D000F013F82078B2
:103A4000401E20702078002801D100F03CF8287832
:103A50001828EDD1FEE72B4900220A600A6882424D
:103A6000FCD3704738B5244C01212046FFF702FFF4
:103A7000254D01224FF480712846FFF703F93220CB
:103A8000FFF7E9FF00224FF480712846FFF7FAF8AC
:103A90003220FFF7E0FF01224FF480712846FFF744
:103AA000F1F83220FFF7D7FF00224FF4807128464B
:103AB000FFF7E8F83220FFF7CEFF00212046BDE8EF
:103AC0003440FFF7D7BE10B501210B48FFF7D2FEF7
:103AD0000D4C01224FF480712046FFF7D3F83220BD
:103AE000FFF7B9FF00224FF480712046FFF7CAF8B4
:103AF0003220FFF7B0FFECE700040040A8000020F0
:103B000086000020040200200008014010B50121B9
:103B10000D20FFF744FD0A4C4FF461402080032044
:103B2000A0701020E07021460648FFF755F81820D5
:103B3000208021460448BDE81040FFF74DB800BF83
:103B40000002002000080140000C01401FB50121C7
:103B50000220FFF72FFD274C012211462046FFF7D8
:103B6000A9FE01212046FFF7BCFE01221146204696
:103B7000FFF78CFE0020ADF80A00ADF8060040F219
:103B8000E730ADF808004720ADF8040000208DF8BC
:103B90000C001D208DF8000000208DF8010002208F
:103BA0008DF8020001208DF8030001A92046FFF7DF
:103BB000D9FD00A800F027F801212046FFF75AFEA2
:103BC0001FBD80B54FF4E06000F018F81E208DF89E
:103BD000000000208DF8010001208DF802008DF812
:103BE000030000A800F00FF801BD03480168491C5C
:103BF0000160704700040040040200201949084396
:103C0000194908607047F0B403781A460121C47856
:103C1000002C1DD0144B1B6803F4E063C3F5E06374
:103C20001B0A4478C3F10405AC4085780F2637465B
:103C3000DF4007EA050323431B010C4C13550078B2
:103C400000F01F0291400A4A401142F8201007E09C
:103C500003F01F0001FA00F00649521141F822005A
:103C6000F0BC70470000FA050CED00E000E400E055
:103C700000E100E080E100E019E050F8041BCB0710
:103C800044BFA9F101035918121F0023042A41F867
:103C9000043BF9D25FEA827C0B4604D54FF0000C5E
:103CA000A1F800C09B1CD10744BF0021197050F837
:103CB000042B002AE1D1704710B450F8041B79B1ED
:103CC0000268436812180830DC0744BFA9F10104F8
:103CD000E31852F8044B43F8044B091FF9D1ECE701
:103CE00010BC70477047FEE7FEE7FEE7FEE770474F
:103CF00070477047704780B501210348FFF7F4FD16
:103D0000BDE80140FFF771BF0004004010B507494E
:103D100079441831064C7C44163404E00A68081DC6
:103D2000511888470146A142F8D110BD0800000093
:103D30002800000045FFFFFF60010000AC000020EC
:103D40000000000075FFFFFFAC0000003C01000018
:103D5000000000200000000000F00BF8002801D057
:103D6000FFF7D4FF0020C046C046FFF753FE00F027
:103D700002F80120704700F001B8000007463846FD
:103D800000F002F8FBE7000080B5C046C046024ADA
:103D900011001820ABBEFBE7260002000148804757
:103DA0000148004719390008AD3D0008C046C0462B
:103DB000C046C046FFF7D0FFFFF794BFFFF793BFA1
:103DC000FFF792BFFFF791BFFFF790BFFFF78FBFDD
:103DD000FFF78EBFFFF78DBFFFF78CBFFFF7FEBF6A
:103DE000FFF7FEBFFFF7FEBFFFF7FEBFFFF7FEBF07
:103DF000FFF7FEBFFFF7FEBFFFF7FEBFFFF7FEBFF7
:103E0000FFF7FEBFFFF7FEBFFFF7FEBFFFF7FEBFE6
:103E1000FFF7FEBFFFF7FEBFFFF7FEBFFFF7FEBFD6
:103E2000FFF7FEBFFFF7FEBFFFF7FEBFFFF7FEBFC6
:103E3000FFF7FEBFFFF7FEBFFFF7FEBFFFF7FEBFB6
:103E4000FFF7FEBFFFF7FEBFFFF7FEBFFFF7FEBFA6
:103E5000FFF751BFFFF7FEBFFFF7FEBFFFF7FEBF43
:103E6000FFF7FEBFFFF7FEBFFFF7FEBFFFF7FEBF86
:103E7000FFF7FEBFFFF7FEBFFFF7FEBFFFF7FEBF76
:103E8000FFF7FEBFFFF7FEBF0000000000000000CC
:103E90000000000000000000000000000000000022
:103EA0000000000000000000000000000000000012
:103EB0000000000000000000000000000000000002
:103EC00000000000000000000000000000000000F2
:103ED00000000000000000000000000000000000E2
:103EE00000000000000000000000000000000000D2
:103EF00000000000000000000000000000000000C2
:103F000000000000000000000000000000000000B1
:103F100000003232323200000000000000000000D9
:103F20000000000000000000000000000000000091
:043F300064640000C5
:0400000508003DAD05
:00000001FF
