:020000040800F2
:100000008009002021A00008EF9F0008F19F000850
:10001000F39F0008F59F0008F79F0008000000000C
:10002000000000000000000000000000F99F000830
:10003000FB9F000800000000FD9F0008FF9F0008D4
:100040003DA0000841A0000845A0000849A0000804
:100050004DA0000851A0000855A0000859A00008B4
:100060005DA0000861A0000865A0000869A0000864
:100070006DA0000871A0000875A0000879A0000814
:100080007DA0000881A0000885A0000889A00008C4
:100090008DA0000891A0000895A0000899A0000874
:1000A0009DA00008A1A00008A5A00008A9A0000824
:1000B000ADA00008B1A00008B5A00008B9A00008D4
:1000C000BDA00008C1A00008C5A00008C9A0000884
:1000D000CDA00008D1A00008D5A00008D9A0000834
:1000E000DDA00008E1A00008E5A000088200E135DD
:1000F0008200E2F28200E2F28200E2F28200E2F2A8
:100100008200E2F28200BAE68200D46E8200E2F25D
:100110008200E2F28200E2F28200E2F28200E2F287
:100120008200E2F28200E2F28200E2F28200D776FE
:100130008200D7C88200E2F28200E2F28200C02A86
:100140008200E2F28200E2F28200E2F28200E2F257
:100150008200ADD38200E2F28200E2F28200E2F29B
:100160008200E2F282009F0D8200E2F2CDBD08CD56
:10017000BD0D5208CDDFC4CDCC43CDE2A9CDADCA73
:10018000CDDDB7C610004D2723A6A0C11000271C47
:10019000CDD388CDE16C35010358350C03613500B2
:1001A000036A3500036D3500036E200CCDE1A6AE69
:1001B000100ACDA661CDB2759A35AE505335565062
:1001C0005372075054FBAE10C8CDD29BCDB6E9AEEA
:1001D00010C8CDD2E07217505435AE50533556503A
:1001E0005372075054FBAE0000CF10E8AE0000CFB2
:1001F00010EA72175054C610004D261035000361E6
:100200003500036A3500036D3500036EA6A0C110EA
:1002100000261A3500036DCDAD35CDDB3FAE0000B5
:10022000CF0318AE0000CF031A350B0361AE036194
:10023000F64D2603CC84174A2603CC85384A26037C
:10024000CC85BD4A2603CC8F744A2603CC8FF24A54
:100250002603CC90F74A2603CC91A34A2603CC92DE
:10026000314A2603CC95304A2603CC940B4A260308
:10027000CC827A4A2603CC82AA4A27084A2603CC93
:10028000915620A9AE0358F64D27064A27334A2037
:100290009C90AE0010AE5230CDDF0AA10027F24F85
:1002A000AE5230CDDE3035600000A608AE5000CD35
:1002B000C9B335020000A606CDC25DCDE199CC815F
:1002C000418FC6036A4D2603CC81413500036A90F5
:1002D000AE0080AE5230CDDF0AA10027F2A625AED7
:1002E0005230CDE28790AE0080AE5230CDDF0AA111
:1002F0000027F2A64CAE5230CDE28790AE0080AE21
:100300005230CDDF0AA10027F2A63AAE5230CDE23C
:100310008790AE0080AE5230CDDF0AA10027F2C632
:10032000034CAE5230CDE28790AE0080AE5230CD5D
:10033000DF0AA10027F2C6034DAE5230CDE287900E
:10034000AE0080AE5230CDDF0AA10027F2A643AE48
:100350005230CDE28790AE0080AE5230CDDF0AA1A0
:100360000027F2CC8141CDE263A601C1036D2707CE
:10037000A602C1036D26073500036DCC8141A6039B
:10038000C1036D2703CC81413500036DCDAB7935B9
:10039000000361CC8141C600144D2762CDAD35CD3F
:1003A000DFE0CDE17BAE00001F05AE00001F07209F
:1003B00028CDD28B01CDB6E9CDD2CF01CDD28B01E4
:1003C000BE00A300002605BE02A3100025E3CDD287
:1003D0008B05CDB6E9CDD2CF05CDD28B05BE00A31E
:1003E00000002605BE02A30014240CAE00001F016D
:1003F000AE00001F0320C5CDDFE035000014AE03C2
:1004000018CDD29BCDBD9CCDB6EEAE0318CDD2EEAD
:10041000BE00A300002605BE02A37531252EAE0046
:1004200000CF0318AE0000CF031AA60AAE02CC8993
:10043000AE031CCDD29B85CDCC59AE031CCDD29B37
:10044000CDB6E9AE031CCDD2E0CDBDDDA601C10322
:100450006D2614CDDFE03500036DCDAB79CDE29D87
:1004600035000361CC8141A602C1036D2648CDDF72
:10047000E03500036DCDAD35CDDB3FA607CDDCD239
:10048000C60352CDD4DCCDCF5BC61024CDE25035AF
:10049000AE50533556505372075054FBAE10D0CD6A
:1004A000D29BCDB6E9AE10D0CDD2E0721750543504
:1004B000020361CC8141A603C1036D2703CC8141B6
:1004C0003500036DCDAD35CDDB3FAEE230CDC46A36
:1004D000C60352CDD4DCC61023CDE25035AE505306
:1004E0003556505372075054FBAE10E4CDD29BCD1D
:1004F000B6E9AE10E4CDD2E0721750543506036170
:10050000CC814135000367C6036D4D2609CDE14816
:10051000CDE199CC8141A601C1036D266E35000362
:100520006DA6A0C110002619CDAD35CDDB3FAE00C4
:1005300000CF0318AE0000CF031A350B0361CC8146
:1005400041AE02D6CDCA62CDAD35CDDB3FAE02D6CF
:10055000CDC46AA606CDDCD2C60352CDD4DCC6100B
:1005600023CDE25035AE5053355650537207505498
:10057000FBAE10CCCDD29BCDB6E9AE10CCCDD2E047
:100580007217505435010361CC8141A602C1036D3D
:1005900026453500036DCDAD35CDDB3FA607CDDC5F
:1005A000D2C60352CDD4DCCDCF5BC61024CDE250F1
:1005B00035AE50533556505372075054FBAE10D0E1
:1005C000CDD29BCDB6E9AE10D0CDD2E0721750544B
:1005D00035020361CC8141A603C1036D2703CC81A1
:1005E000413500036DCDAD35CDDB3FAEE230CDC43E
:1005F0006AC60352CDD4DCC61023CDE25035AE50CE
:10060000533556505372075054FBAE10E4CDD29B75
:10061000CDB6E9AE10E4CDD2E072175054350603E2
:1006200061CC8141CDE263A601C1036D2707A6031A
:10063000C1036D26103500036DCDAB79CDE29D353C
:100640000003612049A602C1036D26423500036DF7
:10065000CDAD35CDDB3FA607CDDCD2C60352CDD420
:10066000DCCDCF5BC61024CDE25035AE50533556AD
:10067000505372075054FBAE10D0CDD29BCDB6E98B
:10068000AE10D0CDD2E07217505435020361A602ED
:10069000C1036E2703CC81413500036ECDAB79CD0C
:1006A000E29D35000361CC81418FA601C1036D2716
:1006B0000EA602C1036D2707A603C1036D261435DC
:1006C00000036DCDAD88CDAB79CDD90CCDE29D3594
:1006D000000361A602C1036E26143500036ECDAD82
:1006E00088CDAB79CDD90CCDE29D35000361C60331
:1006F0006A4D2603CC81413500036ACDE29DCDD9F8
:100700000CA6A0C11000263B359300023F04201622
:100710005FB60497D6019AB8025F97D6C36AB7024C
:10072000B604AB01B704C6036B5F971CFFFF905F75
:10073000B6049097BF0090B3002FD5B602A882B739
:1007400002203B55102000023F0420165FB604979C
:10075000D6019AB8025F97D6C36AB702B604AB0156
:10076000B704C6036B5F971CFFFF905FB6049097BA
:10077000BF0090B3002FD5B602C81021B702C60340
:100780006B5F971C0199F6B1022710C6019A4D279D
:100790000AA608C1019A2703CC8F4EA6A0C110005B
:1007A0002773A6FFCB036BB70420645FB604971CC6
:1007B000FFFF90AE0004CDD5EB909F484848AE02B5
:1007C000E8CDD29BCDB8D7B603885FB604971C019D
:1007D0009984F8B7005FB60497B6001C0199F71D1D
:1007E0000199B604A10325215FB604971C0198F670
:1007F000885FB604971C019984F8B7005FB6049728
:10080000B6001C0199F71D0199B604ABFFB704B6F9
:1008100004A1022496A6E0C4019AA1202703CC8952
:100820002AA6F0C4019BC70364C603644EA40FC785
:100830000364C603644D2603CC8904AE0364F6A1A9
:100840000B2503CC8904A6FFCB0364CDDC66C7036C
:1008500065C603654D2603CC88DE35AE505335564C
:10086000505372075054FBAE10D4CDD29BCDB6E995
:10087000AE10D4CDD2E0721750543500036335006A
:100880000362CDAD88CDDB3FC60352CDD4DCC603B9
:1008900063AE019BCDC148CDBDC3C60363AE019B12
:1008A000CDC74EB70CC603635F971C10699093C603
:1008B00003643F02B703AE0006BF00BE02CDD5B44D
:1008C000BF009372BB0000F6A4F0A1602632B60C04
:1008D000A10A260EBE08A305F52605BE0AA3E1005F
:1008E0002505A609CDDCD2B60CA10A260EBE08A3AA
:1008F00000012605BE0AA386A02505A60ACDDCD2E6
:10090000B60CA10A2630C603635F971C106990934A
:10091000C603643F02B703AE0006BF00BE02CDD5DA
:10092000B4BF009372BB0000F6A40FAE02CCCDBDE5
:1009300082CDCC59205BC603635F971C10699093EE
:10094000C603643F02B703AE0006BF00BE02CDD5AA
:10095000B4BF009372BB0000F6A40FAE02CCCDBDB5
:1009600082CDCC593F0020185FB60097D602CDB794
:10097000015FB60097B601D702CCB600AB01B70055
:10098000B600A10925E25FB60097B60CAB30D702DE
:10099000CCAE02CCCDC46AC603635F971C106990CD
:1009A00093C603643F02B703AE0006BF00BE02CD8C
:1009B000D5B4BF009372BB0000F6CDD548C6102455
:1009C000CDE25035070361CC814135AE50533556E9
:1009D000505372075054FBAE10D8CDD29BCDB6E920
:1009E000AE10D8CDD2E072175054CDCF5BCC814140
:1009F00035AE50533556505372075054FBAE10D895
:100A0000CDD29BCDB6E9AE10D8CDD2E072175054FE
:100A1000CDCF5BCC8141A6E0C4019AA1002703CCD5
:100A20008F28A618C4019AA1002703CC8A52CDAD05
:100A300088CDDB3FC60352CDD4DC35AE505335569E
:100A4000505372075054FBAE10D4CDD29BCDB6E9B3
:100A5000AE10D4CDD2E072175054C603674D270EA6
:100A6000CDDB7CA60AAE02CCCDCC59CC8A3FCDDB07
:100A70007CCDB7DC00015180AE0308CDD2EEAE03D1
:100A800008CDD29BCDB7DC0000003CAE0314CDD224
:100A9000EEAE0308CDD29BCDB7E10000003CCDB750
:100AA000DC0000003CAE0310CDD2EEAE0308CDD288
:100AB0009BCDB7E10000003CCDB7E10000003CCD8C
:100AC000B7DC0000003CAE030CCDD2EEAE030CCD83
:100AD000D29BCDB75200989680CDBDC3AE0310CD4A
:100AE000D29BCDB75200002710CDBDD0AE0314CDA0
:100AF000D29BCDB7520000000ACDBDB6CDB71FCDF9
:100B0000BDA9CDB71FAE0304CDD2E0A60AAE02CC7C
:100B100089AE0304CDD29B85CDCC59352002CC358E
:100B20002D02CF352D02D2352002D5AE02CCCDC458
:100B30006AC61023CDE25035050361CC8141A61869
:100B4000C4019AA1182703CC8DDBCDDB7CCDBDC3BE
:100B5000CDAD88CDDB3FC60352CDD4DCC6019B5F53
:100B600097BF025FBF00AE0324CDD2E0AE0324CD19
:100B7000D29BA608CDB8C6AE0324CDD2E0C6019C58
:100B80005F97BF025FBF00AE0324CDB893AE0324CE
:100B9000CDD2E0AE0324CDD29BA608CDB8C6AE031D
:100BA00024CDD2E0C6019D5F97BF025FBF00AE03B8
:100BB00024CDB893AE0324CDD2E0AE0324CDD29B96
:100BC000A608CDB8C6AE0324CDD2E0C6019E5F977D
:100BD000BF025FBF00AE0324CDB893AE0324CDD2D5
:100BE000E0C610335F97BF025FBF00AE0320CDD2D7
:100BF000E0AE0320CDD29BA608CDB8C6AE0320CD73
:100C0000D2E0C610345F97BF025FBF00AE0320CDB5
:100C1000B893AE0320CDD2E0AE0320CDD29BA60880
:100C2000CDB8C6AE0320CDD2E0C610355F97BF0267
:100C30005FBF00AE0320CDB893AE0320CDD2E0AEAF
:100C40000320CDD29BA608CDB8C6AE0320CDD2E0FE
:100C5000C610365F97BF025FBF00AE0320CDB893CA
:100C6000AE0320CDD2E0C603674D2603CC8C1335EE
:100C7000AE50533556505372075054FB35AA1000EE
:100C80007217505435AE5053355650537207505466
:100C9000FBAE0014BF0090AE00FFAE100ACDE09294
:100CA000AE0004BF0090AE00FFAE1041CDE092AEAA
:100CB0000002BF0090AE00FFAE1020CDE092721790
:100CC0005054CDD388CDE16C90AE0040AE5230CDC3
:100CD000DF0AA10027F2A664AE5230CDE28790AEC3
:100CE0000040AE5230CDDF0AA10027F23500035894
:100CF000350C03613500036A3500036DCC8141AECC
:100D00000320CDD29BBE00A300002605BE02A30097
:100D1000002603CC8DB5AE0324CDD29BCDBDA9CD8D
:100D2000B8612525AE0320CDBD82CDB722AE032408
:100D3000CDB8512462AE0320CDBD82CDB722CDBD4A
:100D40009CCDBD82CDB861244EAE0324CDBD82CDF5
:100D5000B8512525AE0320CDBD82CDB73ACDBD9C7F
:100D6000AE0324CDD29BCDB861242CAE0320CDD2CE
:100D70009BCDBDA9CDB861241EAE0320CDD29BBEB4
:100D800000A3FFFF2605BE02A3FFFF270AA6A0C1FE
:100D900010002703CC8DB535AE50533556505372E5
:100DA000075054FBAE10D4CDD29BCDB6E9AE10D4D3
:100DB000CDD2E072175054AE0324CDD2C3CDBD8244
:100DC000CDCC23CDBD82CDB7DC00015180AE030870
:100DD000CDD2EEAE0308CDD29BCDB7DC0000003CF7
:100DE000AE0314CDD2EEAE0308CDD29BCDB7E10059
:100DF00000003CCDB7DC0000003CAE0310CDD2EECD
:100E0000AE0308CDD29BCDB7E10000003CCDB7E1E9
:100E10000000003CCDB7DC0000003CAE030CCDD29E
:100E2000EEAE030CCDD29BCDB75200989680CDBDCF
:100E3000C3AE0310CDD29BCDB75200002710CDBD5D
:100E4000D0AE0314CDD29BCDB7520000000ACDBD69
:100E5000B6CDB71FCDBDA9CDB71FAE0304CDD2E02F
:100E6000A60AAE02CC89AE0304CDD29B85CDCC5967
:100E7000352002CC352D02CF352D02D2352002D5BA
:100E8000AE02CCCDC46AC61023CDE2503505036155
:100E9000A6A0C110002703CC814135010368CC8195
:100EA0004135AE50533556505372075054FBAE1077
:100EB000D8CDD29BCDB6E9AE10D8CDD2E0721750C6
:100EC00054CDCF5BCC8141A618C4019AA1082678E5
:100ED000CDAD88CDDB3FC60352CDD4DC35AE50530B
:100EE0003556505372075054FBAE10D4CDD29BCD23
:100EF000B6E9AE10D4CDD2E0721750543F04201A98
:100F00005FB60497D61037AB20B7005FB60497B62C
:100F100000D702CCB604AB01B704B604A10A26E0A0
:100F2000AE02CCCDC46AC61023CDE250C603674DD5
:100F3000270F350003633500036235090361CC8157
:100F40004135050361CC8141A618C4019AA110273F
:100F500003CC8F025FBF02BF0035AE5053355650F1
:100F60005372075054FBAE10D4CDD29BCDB6E9AE30
:100F700010D4CDD2E072175054CDAD88CDDB3F35C3
:100F8000000362C60352CDD4DCA607CDDCD2C60175
:100F90009B5F97BF025FBF00A608CDB8C6C6019C85
:100FA0005F97BF065FBF04CDB890A608CDB8C6C690
:100FB000019D5F97BF065FBF04CDB890A608CDB86E
:100FC000C6C6019E5F97BF065FBF04CDB890C6102E
:100FD00045AE02CCCDCC59354302CCAE02CCCDC40B
:100FE0006AC61024CDE25035030361CC814135AE91
:100FF00050533556505372075054FBAE10D8CDD2D3
:101000009BCDB6E9AE10D8CDD2E072175054CDCFFB
:101010005BCC814135AE5053355650537207505416
:10102000FBAE10D8CDD29BCDB6E9AE10D8CDD2E074
:1010300072175054CDCF5BCC814135AE50533556ED
:10104000505372075054FBAE10D8CDD29BCDB6E9A9
:10105000AE10D8CDD2E072175054CDCF5BCC8141C9
:10106000CDE263A601C1036D2707A603C1036D2668
:10107000103500036DCDAB79CDE29D3500036120C5
:1010800042A602C1036D263B3500036DCDDB3FC692
:101090000352CDD4DCA607CDDCD2A606CDDCD2A689
:1010A000FECB036BAE019BCDA90BC61046AE02CCA6
:1010B000CDCC59AE02CCCDC46AC61024CDE2503599
:1010C000040361A602C1036E2703CC8141350003EE
:1010D0006ECDAB79CDE29D35000361CC8141CDE28F
:1010E00063A601C1036D2707A603C1036D26113551
:1010F00000036DCDAB79CDE29D35000361CC90DC72
:10110000A602C1036D2703CC90DC3500036DA60158
:10111000CB0362C70362AE0362F6C110252503CC80
:1011200090D25FBF0ABF08CDDB3FC60352CDD4DCEF
:10113000A607CDDCD2C6019B5F97BF025FBF00CD83
:10114000BDC3CDBD82A608CDB8C6CDBDC3C6019C6A
:101150005F97BF025FBF00CDBDA9CDB890CDBDC325
:10116000CDBD82A608CDB8C6CDBDC3C6019D5F97D3
:10117000BF025FBF00CDBDA9CDB890CDBDC3CDBD71
:1011800082A608CDB8C6CDBDC3C6019E5F97BF027B
:101190005FBF00CDBDA9CDB890CDBDC3C61045AED3
:1011A00002CCCDBD82CDCC59354302CCAE02CCCDE4
:1011B000C46AC61024CDE25035030361200ACDABCA
:1011C00079CDE29D35000361A602C1036E2703CCF1
:1011D00081413500036ECDAB79CDE29D35000361D1
:1011E000CC8141CDE263A601C1036D270EA602C1E9
:1011F000036D2707A603C1036D261EC603684D278E
:101200000A350D036135000368200E3500036DCDEE
:10121000AB79CDE29D35000361A602C1036E2703C1
:10122000CC8141C603684D2708350D0361350003A5
:10123000683500036ECDAB79CDE29D35000361CCFE
:10124000814135AE50533556505372075054FB35DB
:101250000010007217505435000366201EC6036646
:101260005F97D61037AB20B700C603665F97B6000E
:10127000D702CCA601CB0366C70366A60AC10366E4
:1012800026DBAE02CCCDC46A350A0361CC8141CDE8
:10129000E263A601C1036D2707A603C1036D2610F3
:1012A0003500036DCDAB79CDE29D35000361205251
:1012B000A602C1036D264B350103673500036DCDD2
:1012C000AD35CDDB3FA607CDDCD2C60352CDD4DC95
:1012D000A606CDDCD2CDCF5BC61024CDE25035AE14
:1012E00050533556505372075054FBAE10D0CDD2E8
:1012F0009BCDB6E9AE10D0CDD2E072175054350276
:101300000361A602C1036E2703CC81413500036E41
:10131000CDAB79CDE29D35000361CC8141CDE26357
:10132000A601C1036D2707A603C1036D2611350071
:10133000036DCDAB79CDE29D35000361CC93F0A672
:1013400002C1036D2703CC93F03500036DA601CBDA
:101350000363C70363AE0363F6C103652503CC9340
:10136000B9CDDB3FC60352CDD4DCC60363AE019BCF
:10137000CDC148CDBDC3C60363AE019BCDC74EB73B
:101380000CC603635F971C10699093C603643F0209
:10139000B703AE0006BF00BE02CDD5B4BF00937246
:1013A000BB0000F6A4F0A1602632B60CA10A260EFE
:1013B000BE08A305F52605BE0AA3E1002505A6097A
:1013C000CDDCD2B60CA10A260EBE08A3000126056C
:1013D000BE0AA386A02505A60ACDDCD2B60CA10ABA
:1013E0002630C603635F971C10699093C603643F61
:1013F00002B703AE0006BF00BE02CDD5B4BF009356
:1014000072BB0000F6A40FAE02CCCDBD82CDCC598C
:10141000205BC603635F971C10699093C603643F0B
:1014200002B703AE0006BF00BE02CDD5B4BF009325
:1014300072BB0000F6A40FAE02CCCDBD82CDCC595C
:101440003F0020185FB60097D602CDB7015FB60007
:1014500097B601D702CCB600AB01B700B600A10920
:1014600025E25FB60097B60CAB30D702CCAE02CC0B
:10147000CDC46AC603635F971C10699093C603646A
:101480003F02B703AE0006BF00BE02CDD5B4BF0019
:101490009372BB0000F6CDD548C61024CDE250357E
:1014A0000703612037CDDB3FA606CDDCD2C6035251
:1014B000CDD4DCA607CDDCD2A6FECB036BAE019A61
:1014C000CDB02AC6101FAE02CCCDCC59AE02CCCDC9
:1014D000C46AC61024CDE25035080361A602C103D8
:1014E0006E2703CC81413500036ECDAB79CDE29DF3
:1014F00035000361CC8141CDE263A601C1036D27B4
:1015000007A603C1036D26113500036DCDAB79CD60
:10151000E29D35000361CC9515A602C1036D27033A
:10152000CC95153500036DA601CB0363C70363AEED
:101530000363F6A109246CAE0363F64A27174A2712
:101540001C4A27214A27264A272B4A27304A273573
:101550004A273A203EAE10C8CDD29B2036AE10CCE2
:10156000CDD29B202EAE10D0CDD29B2026AE10E443
:10157000CDD29B201EAE10D4CDD29B2016AE10D85B
:10158000CDD29B200EAE10E0CDD29B2006AE10DC5B
:10159000CDD29BA601AE02CCCDCC59AE02CCCDC4EF
:1015A0006A205EA601CB0362C70362AE0362F6C186
:1015B0001025244335000363CDDB3FC60352CDD451
:1015C000DC3F00201A5FB60097D61037AB20B7017A
:1015D0005FB60097B601D702CCB600AB01B700B634
:1015E00000A10A26E0AE02CCCDC46AC61024CDE22A
:1015F0005035090361200ACDAB79CDE29D3500035A
:1016000061A602C1036E2703CC81413500036ECD74
:10161000AB79CDE29D35000361CC8141CDE263A67B
:1016200001C1036D2707A603C1036D261135000311
:101630006DCDAB79CDE29D35000361CC96C6A60297
:10164000C1036D2703CC96C63500036DA601CB03FD
:1016500062C70362AE0362F6C110252503CC96BCB7
:1016600035000363CDDB3FC60352CDD4DCC6036334
:10167000AE019BCDC148CDBDC3C60363AE019BCDBA
:10168000C74EB70CC603635F971C10699093C603DF
:10169000643F02B703AE0006BF00BE02CDD5B4BFA3
:1016A000009372BB0000F6A4F0A1602632B60CA134
:1016B0000A260EBE08A305F52605BE0AA3E10025ED
:1016C00005A609CDDCD2B60CA10A260EBE08A300E1
:1016D000012605BE0AA386A02505A60ACDDCD2B642
:1016E0000CA10A2630C603635F971C10699093C64D
:1016F00003643F02B703AE0006BF00BE02CDD5B4FF
:10170000BF009372BB0000F6A40FAE02CCCDBD8229
:10171000CDCC59205BC603635F971C10699093C6BC
:1017200003643F02B703AE0006BF00BE02CDD5B4CE
:10173000BF009372BB0000F6A40FAE02CCCDBD82F9
:10174000CDCC593F0020185FB60097D602CDB70127
:101750005FB60097B601D702CCB600AB01B700B6B2
:1017600000A10925E25FB60097B60CAB30D702CCDA
:10177000AE02CCCDC46AC603635F971C1069909318
:10178000C603643F02B703AE0006BF00BE02CDD55C
:10179000B4BF009372BB0000F6CDD548C61024CD6F
:1017A000E25035070361200ACDAB79CDE29D3500CB
:1017B0000361A602C1036E2703CC81413500036E8D
:1017C000CDAB79CDE29D35000361CC8141CDBD0D1E
:1017D0003B00083F08CC98EBB608A1102403CC9836
:1017E0000AA6105F01B60802625F971C000890AE5F
:1017F0000010CDD5EBAE0004BF0093CDD5B41C01D5
:10180000EACDD2B7A6105F01B60802625F971C004E
:101810000290AE0010CDD5EBAE0004BF0093CDD545
:10182000B41C01EACDBD75CDB8AECDBD9CA6105F90
:1018300001B60802625F971C000D90AE0010CDD576
:10184000EBAE0004BF0093CDD5B41C01EACDBD754D
:10185000CDB8AECDBD9CA6105F01B6080262905F08
:101860009097AE0004BF0093CDD5B41C01EACDBD66
:1018700075CDB8AECDBD9CA6105F01B608026290D2
:101880005F9097AE0004BF0093CDD5B41C01EACDA4
:10189000D2EEA6105F01B6080262905F9097AE008C
:1018A00004BF0093CDD5B41C01EACDD29BA61FCDB9
:1018B000B8D7CDBD9CA6105F01B6080262905F90BC
:1018C00097AE0004BF0093CDD5B41C01EACDD29BE6
:1018D000A601CDB8C6CDB890CDBD9CA6105F01B60F
:1018E000080262905F9097AE0004BF0093CDD5B41C
:1018F0001C01EACDD2EEAE029ACDD29BAE0296CDBD
:10190000B8AEAE0292CDB878AE029ACDB8AECDBD2B
:10191000D0AE028ECDD29BA61BCDB8D7CDBD9CAE8E
:10192000028ECDD29BA605CDB8C6CDB890CDBDB6A2
:10193000CDB71FCDBD9CA6105F01B6080262905FB7
:101940009097AE0004BF0093CDD5B41C01EACDBD85
:1019500075CDB722CDB71A5A827999AE029ECDB70E
:1019600022AE029ECDD2E0AE0292CDD29BA602CD97
:10197000B8D7CDBD9CAE0292CDD29BA61ECDB8C627
:10198000CDB890AE0292CDD2E0AE029ECDD29BAE4B
:1019900002F4CDD2E0AE029ACDD29BAE029ECDD261
:1019A000E0AE0296CDD29BAE029ACDD2E0AE0292CC
:1019B000CDD29BAE0296CDD2E0AE028ECDD29BAE02
:1019C0000292CDD2E0AE02F4CDD29BAE028ECDD249
:1019D000E0B608AB01B708B608A1142403CC96EC16
:1019E00035140008CC9AEBA6105F01B60802625FBE
:1019F000971C000890AE0010CDD5EBAE0004BF00E0
:101A000093CDD5B41C01EACDD2B7A6105F01B608BC
:101A100002625F971C000290AE0010CDD5EBAE00C5
:101A200004BF0093CDD5B41C01EACDBD75CDB8AED1
:101A3000CDBD9CA6105F01B60802625F971C000D29
:101A400090AE0010CDD5EBAE0004BF0093CDD5B461
:101A50001C01EACDBD75CDB8AECDBD9CA6105F0111
:101A6000B6080262905F9097AE0004BF0093CDD598
:101A7000B41C01EACDBD75CDB8AECDBD9CA6105F3E
:101A800001B6080262905F9097AE0004BF0093CD4C
:101A9000D5B41C01EACDD2EEA6105F01B6080262F1
:101AA000905F9097AE0004BF0093CDD5B41C01EABF
:101AB000CDD29BA61FCDB8D7CDBD9CA6105F01B6D9
:101AC000080262905F9097AE0004BF0093CDD5B43A
:101AD0001C01EACDD29BA601CDB8C6CDB890CDBD34
:101AE0009CA6105F01B6080262905F9097AE00045A
:101AF000BF0093CDD5B41C01EACDD2EEAE0296CD97
:101B0000D29BAE0292CDB8AEAE029ACDB8AECDBDEC
:101B1000D0AE028ECDD29BA61BCDB8D7CDBD9CAE8C
:101B2000028ECDD29BA605CDB8C6CDB890CDBDB6A0
:101B3000CDB71FCDBD9CA6105F01B6080262905FB5
:101B40009097AE0004BF0093CDD5B41C01EACDBD83
:101B500075CDB722CDB71A6ED9EBA1AE029ECDB727
:101B600022AE029ECDD2E0AE0292CDD29BA602CD95
:101B7000B8D7CDBD9CAE0292CDD29BA61ECDB8C625
:101B8000CDB890AE0292CDD2E0AE029ECDD29BAE49
:101B900002F4CDD2E0AE029ACDD29BAE029ECDD25F
:101BA000E0AE0296CDD29BAE029ACDD2E0AE0292CA
:101BB000CDD29BAE0296CDD2E0AE028ECDD29BAE00
:101BC0000292CDD2E0AE02F4CDD29BAE028ECDD247
:101BD000E0B608AB01B708B608A1282403CC98FBEF
:101BE00035280008CC9CFDA6105F01B60802625F94
:101BF000971C000890AE0010CDD5EBAE0004BF00DE
:101C000093CDD5B41C01EACDD2B7A6105F01B608BA
:101C100002625F971C000290AE0010CDD5EBAE00C3
:101C200004BF0093CDD5B41C01EACDBD75CDB8AECF
:101C3000CDBD9CA6105F01B60802625F971C000D27
:101C400090AE0010CDD5EBAE0004BF0093CDD5B45F
:101C50001C01EACDBD75CDB8AECDBD9CA6105F010F
:101C6000B6080262905F9097AE0004BF0093CDD596
:101C7000B41C01EACDBD75CDB8AECDBD9CA6105F3C
:101C800001B6080262905F9097AE0004BF0093CD4A
:101C9000D5B41C01EACDD2EEA6105F01B6080262EF
:101CA000905F9097AE0004BF0093CDD5B41C01EABD
:101CB000CDD29BA61FCDB8D7CDBD9CA6105F01B6D7
:101CC000080262905F9097AE0004BF0093CDD5B438
:101CD0001C01EACDD29BA601CDB8C6CDB890CDBD32
:101CE0009CA6105F01B6080262905F9097AE000458
:101CF000BF0093CDD5B41C01EACDD2EEAE0296CD95
:101D0000D29BAE0292CDB893AE029ACDB878CDBD3B
:101D10009CAE0296CDD29BAE0292CDB878CDB89053
:101D2000CDBDD0AE028ECDD29BA61BCDB8D7CDBD3A
:101D30009CAE028ECDD29BA605CDB8C6CDB890CDB7
:101D4000BDB6CDB71FCDBD9CA6105F01B60802621F
:101D5000905F9097AE0004BF0093CDD5B41C01EA0C
:101D6000CDBD75CDB722CDB71A8F1BBCDCAE029EA0
:101D7000CDB722AE029ECDD2E0AE0292CDD29BA6CE
:101D800002CDB8D7CDBD9CAE0292CDD29BA61ECDC2
:101D9000B8C6CDB890AE0292CDD2E0AE029ECDD202
:101DA0009BAE02F4CDD2E0AE029ACDD29BAE029EA3
:101DB000CDD2E0AE0296CDD29BAE029ACDD2E0AEAD
:101DC0000292CDD29BAE0296CDD2E0AE028ECDD2A3
:101DD0009BAE0292CDD2E0AE02F4CDD29BAE028E8B
:101DE000CDD2E0B608AB01B708B608A13C2403CCBD
:101DF0009AFB353C0008CC9EFDA6105F01B6080298
:101E0000625F971C000890AE0010CDD5EBAE0004C9
:101E1000BF0093CDD5B41C01EACDD2B7A6105F01A7
:101E2000B60802625F971C000290AE0010CDD5EBA1
:101E3000AE0004BF0093CDD5B41C01EACDBD75CD75
:101E4000B8AECDBD9CA6105F01B60802625F971CBC
:101E5000000D90AE0010CDD5EBAE0004BF0093CDC9
:101E6000D5B41C01EACDBD75CDB8AECDBD9CA610D4
:101E70005F01B6080262905F9097AE0004BF0093C6
:101E8000CDD5B41C01EACDBD75CDB8AECDBD9CA6F7
:101E9000105F01B6080262905F9097AE0004BF0029
:101EA00093CDD5B41C01EACDD2EEA6105F01B608E1
:101EB0000262905F9097AE0004BF0093CDD5B41C32
:101EC00001EACDD29BA61FCDB8D7CDBD9CA6105F91
:101ED00001B6080262905F9097AE0004BF0093CDF8
:101EE000D5B41C01EACDD29BA601CDB8C6CDB89021
:101EF000CDBD9CA6105F01B6080262905F9097AEC0
:101F00000004BF0093CDD5B41C01EACDD2EEAE02E1
:101F100096CDD29BAE0292CDB8AEAE029ACDB8AEFF
:101F2000CDBDD0AE028ECDD29BA61BCDB8D7CDBD38
:101F30009CAE028ECDD29BA605CDB8C6CDB890CDB5
:101F4000BDB6CDB71FCDBD9CA6105F01B60802621D
:101F5000905F9097AE0004BF0093CDD5B41C01EA0A
:101F6000CDBD75CDB722CDB71ACA62C1D6AE029E1D
:101F7000CDB722AE029ECDD2E0AE0292CDD29BA6CC
:101F800002CDB8D7CDBD9CAE0292CDD29BA61ECDC0
:101F9000B8C6CDB890AE0292CDD2E0AE029ECDD200
:101FA0009BAE02F4CDD2E0AE029ACDD29BAE029EA1
:101FB000CDD2E0AE0296CDD29BAE029ACDD2E0AEAB
:101FC0000292CDD29BAE0296CDD2E0AE028ECDD2A1
:101FD0009BAE0292CDD2E0AE02F4CDD29BAE028E89
:101FE000CDD2E0B608AB01B708B608A1502403CCA7
:101FF0009D0D320008CDBD50818A84A4BF8886CD56
:10200000BCFECDBD03AE5230CDE2BDB700AE03572E
:10201000F64D270C4A27194A2603CCA590CCA64694
:10202000B600A1232703CCA64635010357CCA6460C
:10203000B600A1412624CDD90C4FCDE03035F000BB
:1020400000A602AE5019CDC9B3CDAD35CDE17B357B
:1020500001035835000357CCA646B600A1422621FD
:10206000CDD90C4FCDE03035C00000A602AE5019DE
:10207000CDC9B3CDAB793501035835000357CCA694
:1020800046B600A1432632CDD90C35C00000A602C9
:10209000AE5019CDC9B3CDAB7935E00000A640AE46
:1020A000500FCDC9B34FCDE016A601CDE0303501BC
:1020B000035835000357CCA646B600A1442647CDA9
:1020C000D90C35C00000A602AE5019CDC9B3CDABB6
:1020D0007935E00000A640AE500FCDC9B3A680CD43
:1020E000E016A601CDE03035010358AEE2E9CDDDC2
:1020F0005F90AE0040AE5230CDDF0AA10027F2352E
:10210000000357CCA646B600A14C26254FCDE030A3
:1021100035C00000A602AE5019CDC9B3CDAB79CD04
:10212000CF5B350103583501035635000357CCA664
:1021300046B600A153263D4FCDE030CDD90CCDABF6
:102140007935000358CDCC4335AE505335565053F6
:1021500072075054FB35A0100072175054AE0000A7
:10216000CF0318AE0000CF031A350B03613500030F
:1021700057CCA646B600A1502657AEE2FECDDD5F95
:1021800090AE0040AE5230CDDF0AA10027F2AEE3A0
:1021900000CDDD5F90AE0040AE5230CDDF0AA10031
:1021A00027F2AEE302CDDD5F90AE0040AE5230CDFF
:1021B000DF0AA10027F2AEE304CDDD5F90AE004060
:1021C000AE5230CDDF0AA10027F235000357CCA66E
:1021D00046B600A1522703CCA1B0AEE2ECCDDD5F44
:1021E00090AE0040AE5230CDDF0AA10027F235AEEE
:1021F00050533556505372075054FB35FF10007240
:1022000017505435AE50533556505372075054FB47
:10221000AE0000CF02FCAE0000CF02FE201CAE02DA
:10222000FCCDD29BBE02A6FFD7100AAE02FCCDD2D7
:102230009BCDB6E9AE02FCCDD2E0AE02FCCDD29B86
:10224000BE00A300002605BE02A3003E25D0350037
:102250000354202FC603545F9758DE106FC60355F2
:102260003F00B70172BB0000A6FFF7A601CB0355E4
:10227000C70355AE0355F6A10725D9A601CB0354D4
:10228000C70354AE0354F6A10A24063500035520B3
:10229000E27217505435000357CCA646B600A1543D
:1022A000260B3500035935020357CCA646B600A1CC
:1022B0004E263BAEE2EFCDDD5F90AE0040AE523039
:1022C000CDDF0AA10027F2CDCC4335AE50533556B1
:1022D000505372075054FBAE0000CF10E8AE000020
:1022E000CF10EA7217505435000357CCA646B600FB
:1022F000A14D2674AEE2D1CDDD5F90AE0040AE526E
:1023000030CDDF0AA10027F2AE10E8CDD29BCDD6AA
:1023100011CDDD5F90AE0040AE5230CDDF0AA1009E
:1023200027F2AEE306CDDD5F90AE0040AE5230CD79
:10233000DF0AA10027F2CDDB7CCDD611CDDD5F9089
:10234000AE0040AE5230CDDF0AA10027F2AEE3046A
:10235000CDDD5F90AE0040AE5230CDDF0AA1002748
:10236000F235000357CCA646B600A147266FAEE271
:10237000D5CDDD5F90AE0040AE5230CDDF0AA1007A
:1023800027F23F00201A5FB60097D61037AB20B770
:10239000015FB60097B601D700BFB600AB01B7002A
:1023A000B600A10A26E05FB600974FD700BFAE0087
:1023B000BFCDDD5F90AE0040AE5230CDDF0AA10050
:1023C00027F2AEE304CDDD5F90AE0040AE5230CDDB
:1023D000DF0AA10027F235000357CCA646B600A1BC
:1023E000482643AEE2D9CDDD5F90AE0040AE52301C
:1023F000CDDF0AA10027F2AEE225CDDD5F90AE0071
:1024000040AE5230CDDF0AA10027F2AEE304CDDDAD
:102410005F90AE0040AE5230CDDF0AA10027F2350A
:10242000000357CCA646B600A151265935AE5053ED
:102430003556505372075054FB5FBF02BF00AE10B9
:10244000EDCDD2E0AE10E8CDD2E0AE10E4CDD2E0DA
:10245000AE10E0CDD2E0AE10DCCDD2E0AE10D8CDE3
:10246000D2E0AE10D4CDD2E0AE10D0CDD2E0AE10DE
:10247000CCCDD2E0AE10C8CDD2E0721750543500AA
:102480000357CCA646B600A1552703CCA589AEE2DA
:10249000DDCDDD5F90AE0040AE5230CDDF0AA10051
:1024A00027F2AE10C8CDD29BCDD611CDDD5F90AE58
:1024B0000040AE5230CDDF0AA10027F2AEE306CDD8
:1024C000DD5F90AE0040AE5230CDDF0AA10027F2B2
:1024D000AE10CCCDD29BCDD611CDDD5F90AE0040FD
:1024E000AE5230CDDF0AA10027F2AEE306CDDD5FAC
:1024F00090AE0040AE5230CDDF0AA10027F2AE1000
:10250000D0CDD29BCDD611CDDD5F90AE0040AE5286
:1025100030CDDF0AA10027F2AEE306CDDD5F90AE3D
:102520000040AE5230CDDF0AA10027F2AE10E4CD5C
:10253000D29BCDD611CDDD5F90AE0040AE5230CDF6
:10254000DF0AA10027F2AEE306CDDD5F90AE0040CA
:10255000AE5230CDDF0AA10027F2AE10D4CDD29B0F
:10256000CDD611CDDD5F90AE0040AE5230CDDF0A4A
:10257000A10027F2AEE306CDDD5F90AE0040AE5283
:1025800030CDDF0AA10027F2AE10D8CDD29BCDD638
:1025900011CDDD5F90AE0040AE5230CDDF0AA1001C
:1025A00027F2AEE306CDDD5F90AE0040AE5230CDF7
:1025B000DF0AA10027F2AE10E0CDD29BCDD611CD1F
:1025C000DD5F90AE0040AE5230CDDF0AA10027F2B1
:1025D000AEE306CDDD5F90AE0040AE5230CDDF0AF7
:1025E000A10027F2AE10DCCDD29BCDD611CDDD5FA0
:1025F00090AE0040AE5230CDDF0AA10027F2AEE32C
:1026000006CDDD5F90AE0040AE5230CDDF0AA100B6
:1026100027F2AE10E8CDD29BCDD611CDDD5F90AEC6
:102620000040AE5230CDDF0AA10027F2AEE306CD66
:10263000DD5F90AE0040AE5230CDDF0AA10027F240
:10264000AE10EDCDD29BCDD611CDDD5F90AE00406A
:10265000AE5230CDDF0AA10027F2AEE304CDDD5F3C
:1026600090AE0040AE5230CDDF0AA10027F2350017
:102670000357CCA64635000357CCA646C603595F80
:1026800097B600D700BFA678C103592703CCA63E52
:1026900035AE50533556505372075054FBAE003D83
:1026A000BF0090AE00BFAE100ACDDE577217505477
:1026B000AE0079BF025FBF00AE00BFCDCCFCAE0361
:1026C00000CDD2E0AEE2E1CDDD5F90AE0040AE5293
:1026D00030CDDF0AA10027F2AE0300CDD29BCDD6CC
:1026E00011CDDD5F90AE0040AE5230CDDF0AA100CB
:1026F00027F2AEE304CDDD5F90AE0040AE5230CDA8
:10270000DF0AA10027F235AE5053355650537207F9
:102710005054FBAE10EDCDD29BCDB6E9AE10EDCD51
:10272000D2E07217505435000357A601CB0359C7A6
:10273000035990AE0266AE5230CDDF8790AE0020D6
:10274000AE5230CDE2C2CDBD3ACDBD2F80CDBCCC96
:102750005208BF0A3F09201A5FB6099772BB000AE8
:10276000F6B7005FB60997B600D7027AB609AB0193
:10277000B709B609A11425E03F09201D5FB60997E6
:1027800072BB000A1C0014F6B7005FB60997B600CA
:10279000D702AEB609AB01B709B609A10925DD3FDD
:1027A0000920453D09260AAE00001F01AE00001FAA
:1027B000035FB6099772BB000A1C001DF65F97BF46
:1027C000065FBF04CDD28B01CDB890CDD2CF01B67C
:1027D00009A103270DCDD28B01A608CDB8C6CDD255
:1027E000CF01B609AB01B709B609A10425B53F0968
:1027F00020453D09260AAE00001F05AE00001F0758
:102800005FB6099772BB000A1C0021F65F97BF06EE
:102810005FBF04CDD28B05CDB890CDD2CF05B60920
:10282000A103270DCDD28B05A608CDB8C6CDD2CF3A
:1028300005B609AB01B709B609A10425B5CDD28B00
:1028400001AE02E0CDD2E0CDD28B05AE02E4CDD216
:10285000E0AE00001F01AE00001F03AE00001F0528
:10286000AE00001F073F0920375FB6099772BB0013
:102870000A1C0025F65F97BF065FBF04CDD28B010F
:10288000CDB890CDD2CF01B609A103270DCDD28B03
:1028900001A608CDB8C6CDD2CF01B609AB01B709A4
:1028A000B609A10425C3CDD28B01AE02ECCDD2E096
:1028B000AE00001F01AE00001F03AE00001F05AEFA
:1028C00000001F073F0920375FB6099772BB000A57
:1028D0001C0029F65F97BF065FBF04CDD28B01CDE8
:1028E000B890CDD2CF01B609A103270DCDD28B016F
:1028F000A608CDB8C6CDD2CF01B609AB01B709B68F
:1029000009A10425C3AE00001F01AE00001F03AEE5
:1029100000001F05AE00001F073F09201D5FB6091C
:102920009772BB000A1C002DF6B7005FB60997B678
:1029300000D702B8B609AB01B709B609A10A25DD6F
:102940003F0920375FB6099772BB000A1C0037F6B3
:102950005F97BF065FBF04CDD28B01CDB890CDD2BB
:10296000CF01B609A103270DCDD28B01A608CDB8A2
:10297000C6CDD2CF01B609AB01B709B609A104256E
:10298000C3CDD28B01AE02E8CDD2E0AE00001F0174
:10299000AE00001F03AE00001F05AE00001F073F82
:1029A00009201D5FB6099772BB000A1C003BF6B7F1
:1029B000005FB60997B600D70252B609AB01B70956
:1029C000B609A12825DD3F09201D5FB6099772BB16
:1029D000000A1C0063F6B7005FB60997B600D7027D
:1029E000C2B609AB01B709B609A10225DD3500035E
:1029F000535B08CDBCE481CDBD0D3B0008BF02B7E1
:102A0000013F08201A5FB6089772BB0002F6B700B4
:102A10005FB60897B600D701EAB608AB01B708B6AB
:102A200008B10125E05FB60197BF025FBF00AE02AB
:102A3000F4CDD2E0CDDB7CAE02F0CDD2E0AE02E44C
:102A4000CDD2B7AE02F0CDD29BCDB7E4AE02F0CD81
:102A5000D2E0AE02F4CDD29BBE02C602F0D701EAAC
:102A6000AE02F4CDD29BCDB6E9AE02F4CDD2E0AE4B
:102A700002F4CDD29BBE02C602F1D701EAAE02F447
:102A8000CDD29BCDB6E9AE02F4CDD2E0AE02F4CD0C
:102A9000D29BBE02C602F2D701EAAE02F4CDD29BAF
:102AA000CDB6E9AE02F4CDD2E0AE02F4CDD29BBEFB
:102AB00002C602F3D701EAAE02F4CDD29BCDB6E94D
:102AC000AE02F4CDD2E0AE02F4CDD29BBE02A6801F
:102AD000D701EAAE02F4CDD29BB6034CB708200E64
:102AE0005FB608974FD701EAB608AB01B708B6083A
:102AF000A13E25ECAE02F4CDD29BCDB71A0000006A
:102B000040AE02F4CDD2E0AE02F4CDD29BBE02CDF7
:102B1000D60B9FC70228AE02F4CDD29BB60348481D
:102B200048C70229CDB988A60FC401FDB7085FB612
:102B30000897D601EB5F97BF025FBF00A610CDB824
:102B4000C6CDBD9C5FB60897D601EA5F9702A40088
:102B500002A47F02CDB8E8A618CDB8C6CDB890CDF6
:102B6000BD9C5FB60897D601EC5F97BF025FBF00C0
:102B7000A608CDB8C6CDBDD0CDBD75CDBDB6CDB83E
:102B800090CDBD9C5FB60897D601ED5F97BF025F01
:102B9000BF00CDB890AE02F4CDD2E0AE02C3F64A8B
:102BA000272E4A273D4A274C4A275B4A276A4A274D
:102BB000794A2603CCAB504A2603CCAB62AE02F472
:102BC000CDD29BCDB7DC05F5E100CDBD75CCAB72A8
:102BD000AE02F4CDD29BCDB7DC0000000ACDBD75AE
:102BE000207CAE02F4CDD29BCDB7DC00000064CDDA
:102BF000BD75206AAE02F4CDD29BCDB7DC000003D8
:102C0000E8CDBD752058AE02F4CDD29BCDB7DC0027
:102C1000002710CDBD752046AE02F4CDD29BCDB7B6
:102C2000DC000186A0CDBD752034AE02F4CDD29B70
:102C3000CDB7DC000F4240CDBD752022AE02F4CDF1
:102C4000D29BCDB7DC00989680CDBD752010AE022A
:102C5000F4CDD29BCDB7DC05F5E100CDBD753200DA
:102C600008CDBD5081C6035A4D2603CCAD34350086
:102C7000035ACDDB3F3F004FCDE2193F00A601CD07
:102C8000E2193F00A602CDE2193F00A604CDE219E9
:102C90004FCDE1C0720C5402FB35C00000A610AE4F
:102CA0005000CDC9B335C00000A620AE5000CDC93C
:102CB000B335C00000A640AE5000CDC9B335C0004A
:102CC00000A680AE5000CDC9B335C00000A601AE4D
:102CD0005005CDC9B335C00000A602AE5005CDC920
:102CE000B335C00000A604AE5005CDC9B335C00051
:102CF00000A608AE5005CDC9B335C00000A610AE81
:102D00005005CDC9B335C00000A620AE5005CDC9D1
:102D1000B335C00000A640AE5005CDC9B335C000E4
:102D200000A680AE5005CDC9B335C00000A604AEE4
:102D3000500ACDC9B335C00000A608AE500ACDC9AF
:102D4000B335C00000A601AE500FCDC9B335C000E9
:102D500000A602AE500FCDC9B335C00000A604AE28
:102D6000500FCDC9B335C00000A608AE500FCDC975
:102D7000B335C00000A610AE500FCDC9B335C000AA
:102D800000A620AE500FCDC9B335C00000A640AE9E
:102D9000500FCDC9B335C00000A680AE500FCDC9CD
:102DA000B335C00000A601AE5014CDC9B335C00084
:102DB00000A602AE5014CDC9B335C00000A604AEC3
:102DC0005014CDC9B335C00000A608AE5014CDC90B
:102DD000B335C00000A610AE5014CDC9B335C00045
:102DE00000A620AE5014CDC9B335C00000A610AE69
:102DF0005019CDC9B335C00000A620AE5019CDC9B9
:102E0000B335C00000A640AE5019CDC9B335C000DF
:102E100000A680AE5019CDC9B33F00A613CDD07423
:102E2000813501035A35010000A613CDD0743F034C
:102E30003F02350600013F00A620CDD185A601CD79
:102E4000E1CDA620CDE0E9A608CDE0FC35FF0000ED
:102E50004FCDE21935FF0000A601CDE21935FF0084
:102E600000A602CDE21935FF0000A604CDE219A6A6
:102E700001CCE1C035FF035B3F0120335FB6019712
:102E8000D6E062905F909772A9540C5FB60197D616
:102E9000E04A4390F4B7005FB60197D6E0625F97CF
:102EA000B6001C540CF71D540CB601AB01B701B6AB
:102EB00001A11825C781CDAD88CDAD35CCAB798AC0
:102EC00084A4BF8886CDBCFECDBD03A604AE500051
:102ED000CDE296AE0334CDD29BA601CDB8C6AE03EB
:102EE00034CDD2E0CE03465D276490AE03345FBF9D
:102EF000005CBF0293CDB893AE0334CDD2E0C603DD
:102F0000694D2603CCAEB7CE034890AE000A65905B
:102F10005D2603CCAEB7CE034890AE000A6590A301
:102F20000009277FCE034890AE000A65909F4AAE05
:102F30000080CDD6039FCE034890AE000A65DA012B
:102F40009ACE034890AE000A65D7019A2055AE0389
:102F500034CDD29BAE0334CDD2E0C603694D2743B6
:102F6000CE034890AE000A65905D2737CE034890A7
:102F7000AE000A6590A300092729CE034890AE0051
:102F80000A65909F4AAE0080CDD6039F43CE03488A
:102F900090AE000A65D4019ACE034890AE000A654F
:102FA000D7019ACE03485CCF0348C603564D273558
:102FB000AE0334CDD29BBE0202A41F02A4FF02A323
:102FC0000D522621AE0334CDD29BB603C7034DAEBE
:102FD0000334CDD29BB602C7034C35000356CDD97E
:102FE0000C3501036AA602C10369261790CE034877
:102FF000905CAE000CBF0093CDD5B490CE034A6573
:10300000CDD0FDA602C10369261BCE0348C3034AE7
:103010002513CDD90CCE034A90AE000A659FC70395
:103020006B3501036AA601C103692703CCAFF6CE55
:103030000348A3000A2703CCAFF635020369A6E0D4
:10304000C4019AA100262FC6019A5F9702A400022C
:10305000A40702CF034ACE034A5CCF034ACE034AF9
:103060005CCF034A90CE034AAE000ABF0093CDD591
:10307000B4CF034A2036A6E0C4019AA120262DC66B
:10308000019A5F9702A40002A41F02CF034ACE0355
:103090004A5CCF034ACE034A5CCF034A90CE034A30
:1030A000AE000ABF0093CDD5B4CF034ACE034AA3E6
:1030B00003212508AE0320CF034A200CCE034A5D2E
:1030C0002606AE000ACF034ACDAD8890CE034890C5
:1030D0005CAE000CBF0093CDD5B490CE034A65CD55
:1030E000D0FDC603694D2622AE0334CDD29BBE026D
:1030F00002A41F02A4FF02A31AA4260E350103692D
:10310000AE0003CF03483500019AA601CDE2B8CD49
:10311000BD3ACDBD2F80CDBD0D3B000890AE01EA7C
:10312000CDB4BF5F97BF025FBF00AE02F4CDD2E067
:10313000CDDB7CAE02F0CDD2E0AE02E4CDD2B7AEB4
:1031400002F0CDD29BCDB7E4AE02F0CDD2E0AE021C
:10315000F4CDD29BBE02C602F0D701EAAE02F4CD96
:10316000D29BCDB6E9AE02F4CDD2E0AE02F4CDD220
:103170009BBE02C602F1D701EAAE02F4CDD29BCDCE
:10318000B6E9AE02F4CDD2E0AE02F4CDD29BBE02DF
:10319000C602F2D701EAAE02F4CDD29BCDB6E9AEBB
:1031A00002F4CDD2E0AE02F4CDD29BBE02C602F351
:1031B000D701EAAE02F4CDD29BCDB6E9AE02F4CD92
:1031C000D2E0AE02F4CDD29BBE02A680D701EAAE19
:1031D00002F4CDD29BB6034CB708200E5FB6089719
:1031E0004FD701EAB608AB01B708B608A13E25ECF7
:1031F000AE02F4CDD29BCDB71A00000040AE02F46F
:10320000CDD2E0AE02F4CDD29BBE02CDD60B9FC78D
:103210000228AE02F4CDD29BB603484848C7022923
:10322000CDB988A60FC401FDB7085FB60897D601CF
:10323000EB5F97BF025FBF00A610CDB8C6CDBD9CA7
:103240005FB60897D601EA5F9702A40002A47F0246
:10325000CDB8E8A618CDB8C6CDB890CDBD9C5FB6A8
:103260000897D601EC5F97BF025FBF00A608CDB8F4
:10327000C6CDBDD0CDBD75CDBDB6CDB890CDBD9CB4
:103280005FB60897D601ED5F97BF025FBF00CDB86C
:1032900090AE02F4CDD2E0AE02AFF64A272E4A2716
:1032A0003D4A274C4A275B4A276A4A27794A260320
:1032B000CCB24C4A2603CCB25EAE02F4CDD29BCD4A
:1032C000B7DC05F5E100CDBD75CCB26EAE02F4CD34
:1032D000D29BCDB7DC0000000ACDBD75207CAE02CC
:1032E000F4CDD29BCDB7DC00000064CDBD75206A63
:1032F000AE02F4CDD29BCDB7DC000003E8CDBD75A6
:103300002058AE02F4CDD29BCDB7DC00002710CD03
:10331000BD752046AE02F4CDD29BCDB7DC00018650
:10332000A0CDBD752034AE02F4CDD29BCDB7DC006C
:103330000F4240CDBD752022AE02F4CDD29BCDB759
:10334000DC00989680CDBD752010AE02F4CDD29BE6
:10335000CDB7DC05F5E100CDBD75320008CDBD501F
:10336000813F0320185FB60397D6027AB7005FB695
:103370000397B600D701EAB603AB01B703B603A1C2
:103380001425E2B603A14024105FB603974FD7017E
:10339000EAB603AB01B70320EA3F03201A5FB60386
:1033A00097D601EAA85CB7005FB60397B600D700CE
:1033B0001BB603AB01B703B603A14025E03F0320D2
:1033C0001A5FB60397D601EAA836B7005FB603972F
:1033D000B600D701EAB603AB01B703B603A1402597
:1033E000E0AE6745CF028EAE2301CF0290AEEFCDA7
:1033F000CF0292AEAB89CF0294AE98BACF0296AE0E
:10340000DCFECF0298AE1032CF029AAE5476CF02D5
:103410009CAEC3D2CF029EAEE1F0CF02A0CD96E12A
:10342000AE028ECDD29BCDB71A67452301AE028E78
:10343000CDD2E0AE0292CDD29BCDB71AEFCDAB8903
:10344000AE0292CDD2E0AE0296CDD29BCDB71A9805
:10345000BADCFEAE0296CDD2E0AE029ACDD29BCDC2
:10346000B71A10325476AE029ACDD2E0AE029ECD9B
:10347000D29BCDB71AC3D2E1F0AE029ECDD2E03FCF
:1034800003202A3F02AE0004BF00BE02CDD5B41C0B
:10349000028ECDD2B73F02AE0004BF00BE02CDD532
:1034A000B41C022ACDD2EEB603AB01B703B603A11A
:1034B0000525D0AE6745CF028EAE2301CF0290AE78
:1034C000EFCDCF0292AEAB89CF0294AE98BACF02C5
:1034D00096AEDCFECF0298AE1032CF029AAE547692
:1034E000CF029CAEC3D2CF029EAEE1F0CF02A03F8E
:1034F0000320185FB60397D6001BB7005FB603978B
:10350000B600D701EAB603AB01B703B603A1402565
:10351000E2CD96E1AE028ECDD29BCDB71A674523A0
:1035200001AE028ECDD2E0AE0292CDD29BCDB71AC3
:10353000EFCDAB89AE0292CDD2E0AE0296CDD29B5A
:10354000CDB71A98BADCFEAE0296CDD2E0AE029AA2
:10355000CDD29BCDB71A10325476AE029ACDD2E0BE
:10356000AE029ECDD29BCDB71AC3D2E1F0AE029E81
:10357000CDD2E03F03202D3F02AE0004BF00BE02CB
:10358000CDD5B41C023E90933F02AE0004BF00BEF6
:1035900002CDD5B41C028ECDD2B793CDD2EEB603F8
:1035A000AB01B703B603A10525CD81CDBD08CDBDC7
:1035B0000D5201BF0A3F0992C60AA4E0A120263E8F
:1035C0003F082006B608AB01B708B608A1062426B6
:1035D000BE0A1C0001F64EA40F905F9097AE000645
:1035E000BF0093CDD5B4BF005FB608971C106972B9
:1035F000BB00007D26CEB6086B013F0820534FCCA0
:10360000B6D45FB6099789AE02F8CDD29BB60385D2
:10361000D701EAB609AB01B709B604A10A272CB64F
:103620000F4EA4F0B7005FB60997B600D701EA5F66
:10363000B60997B604A40FDA01EAB7005FB6099796
:10364000B600D701EAB609AB01B709B608AB01B7B6
:1036500008B60811012503CCB6D2B608BE0A1C0074
:1036600001CDC148AE02F8CDD2E0CDBDD0B608BE86
:103670000A1C0001CDC74EB704B604A10A2711AE3B
:1036800002F8CDD29BA604CDB8D7AE02F8CDD2E0D9
:10369000AE02F890935FBF02AEFF00BF0093CDB8BB
:1036A00078BE00A300002605BE02A30000275FAE7F
:1036B00002F8CDD29B5FB60997B600D701EAB609EA
:1036C000AB01B709AE02F8CDD29B4501025FB60946
:1036D00097B602D701EAB609AB01B709AE02F8CD39
:1036E000D29B4502015FB60997B601D701EAB60938
:1036F000AB01B7095FB6099789AE02F8CDD29BB688
:103700000385D701EAB609AB01B709CCB52DAE02E6
:10371000F890935FBF02AE00FFBF0093CDB878BEB4
:1037200000A300002605BE02A30000274AAE02F84F
:10373000CDD29B4501025FB60997B602D701EAB622
:1037400009AB01B709AE02F8CDD29B4502015FB6C5
:103750000997B601D701EAB609AB01B7095FB60907
:103760009789AE02F8CDD29BB60385D701EAB60998
:10377000AB01B709CCB52DAE02F8CDD29BBE02028B
:10378000A4FF02A400025D2603CCB516AE02F8CD5C
:10379000D29B4502015FB60997B601D701EAB60987
:1037A000AB01B7095FB6099789AE02F8CDD29BB6D7
:1037B0000385D701EAB609AB01B709CCB52DB60927
:1037C0005B01CCBD63BE005089BE0250BF0285279D
:1037D000015ABF0081AE00002005AE000420006C3D
:1037E0000326096C0226056C0126017C81AE000CC3
:1037F00020006D03260D6D0226076D0126017A6AF1
:10380000016A026A0381CDE0872003AE0004B6039B
:10381000EB03B703B602E902B702B601E901B7014B
:10382000B600F9B70081B603E003B703B602E202BF
:10383000B702B601E201B701B600F2B70081CDE0F0
:103840008789FEBF0485EE02BF06B600BE06429F12
:10385000B700B601BE05429FBB00B700B602BE046A
:10386000429FBB00B700B603BE03429FBB00B70038
:10387000B601BE06423F0172BB0000BF00B602BEE9
:10388000054272BB0000BF00B603BE044272BB001B
:1038900000BF00B602BE06423F0272BB0001BF017C
:1038A00024023C00B603BE054272BB0001BF0124E6
:1038B000023C00B603BE06423F0372BB0002BF02D9
:1038C0002405BE005CBF0081CDE07A2003CDE07A04
:1038D000BE00261E90BE04260CBE0290BE0665BF2A
:1038E0000290BF0681BF04450206450307BF00BF23
:1038F0000281A6203D00260DBE01BF004503023F08
:10390000033A03A0085F905F992017905959B304B8
:10391000260390B306250B72B2000624015A72B03A
:10392000000439033902390139004A2ADEBF049004
:10393000BF06BE0053BF00BE0253BF0281908990F4
:10394000BE00F3260590BE02E302908581BE00B35F
:10395000042604BE02B3068133003301330233036D
:1039600081AE0004B600F4B700B601E401B701B6B9
:1039700002E402B702B603E403B70381AE0004B663
:1039800000FAB700B601EA01B701B602EA02B702CF
:10399000B603EA03B70381AE0004B600F8B700B679
:1039A00001E801B701B602E802B702B603E803B7BF
:1039B0000381AE00004D270A680369026901794A54
:1039C00026F681AE00004D270A7466016602660382
:1039D0004A26F681BF025F3D022A0153BF00813FA4
:1039E00003CCB97E3F02AE0004BF00BE02CDD5B409
:1039F0001C028ECDD2B74504005FB603975858B667
:103A000000D701EA3F02AE0004BF00BE02CDD5B42C
:103A10001C028ECDD2B74505025FB6039758581CDD
:103A200001EBB602F73F02AE0004BF00BE02CDD5E7
:103A3000B41C028ECDD2B74506015FB60397585825
:103A40001C01ECB601F73F02AE0004BF00BE02CD80
:103A5000D5B41C028ECDD2B75FB6039758581C015F
:103A6000EDB607F7B603AB01B703B603A105240310
:103A7000CCB8F881AE022ACDD29BAE028ECDD2E078
:103A8000AE022ECDD29BAE0292CDD2E0AE0232CDAE
:103A9000D29BAE0296CDD2E0AE0236CDD29BAE0224
:103AA0009ACDD2E0AE023ACDD29BAE029ECDD2E00C
:103AB000CD96E1AE022ACDD29BAE028ECDB722AE1C
:103AC000028ECDD2E0AE022ECDD29BAE0292CDB709
:103AD00022AE0292CDD2E0AE0232CDD29BAE0296A1
:103AE000CDB722AE0296CDD2E0AE0236CDD29BAE9D
:103AF000029ACDB722AE029ACDD2E0AE023ACDD232
:103B00009BAE029ECDB722AE029ECDD2E0CDB8F3E1
:103B1000358001FE35150000200E5FB600974FD7A7
:103B200001EAB600AB01B700B600A13E25EC3502B4
:103B3000022835A00229AE023ECDD29BAE028ECD28
:103B4000D2E0AE0242CDD29BAE0292CDD2E0AE0226
:103B500046CDD29BAE0296CDD2E0AE024ACDD29BEC
:103B6000AE029ACDD2E0AE024ECDD29BAE029ECD39
:103B7000D2E0CD96E1AE023ECDD29BAE028ECDB765
:103B800022AE028ECDD2E0AE0242CDD29BAE0292E8
:103B9000CDB722AE0292CDD2E0AE0246CDD29BAEE0
:103BA0000296CDB722AE0296CDD2E0AE024ACDD279
:103BB0009BAE029ACDB722AE029ACDD2E0AE024EB3
:103BC000CDD29BAE029ECDB722AE029ECDD2E0CC2E
:103BD000B8F38A84A4BF8886CDBCFECDBD03AE00F9
:103BE00004CDDBF5A1012703CCBB8CAE0338CDD2CD
:103BF0009BCDB6E9AE0338CDD2E0AE0338CDD29B33
:103C0000CDB7DC00005460AE033CCDD2EEA60CC1B3
:103C100003612634AE033CCDD29BBE00A300002638
:103C200005BE02A30000262035AE50533556505332
:103C300072075054FBAE10E8CDD29BCDB6E9AE1062
:103C4000E8CDD2E072175054A601C1036E2612A629
:103C5000FFCB036FC7036FC6036F4D260435020306
:103C60006EA6FFC1035B2703CDBF08AE03404FCD57
:103C7000CFEAAE0040CDE2755F5CCDDBF5A1012758
:103C800003CCBC92C6036C4D2603CCBC4535000367
:103C90006C35400000A680AE5014CDC9B33540004D
:103CA00000A640AE5014CDC9B3A640AE5014CDE22C
:103CB0006CA1002612A680AE5014CDE26CA10026A5
:103CC000063503036D2022A680AE5014CDE26CA110
:103CD0000026063501036D2010A640AE5014CDE23B
:103CE0006CA10026043502036DAE0040CDDF2CAE82
:103CF0000080CDDF2C35600000A680AE5014CDC909
:103D0000B335600000A640AE5014CDC9B3C6036100
:103D10004D2707A60AC10361260D4FAE0010CDDC6A
:103D20002E4FCDD81A2051A60FCE0350CDDBB9208F
:103D30004735AE50533556505372075054FBAE10B2
:103D4000E0CDD29BCDB6E9AE10E0CDD2E0721750F7
:103D500054A602C10361262035AE50533556505348
:103D600072075054FBAE10DCCDD29BCDB6E9AE103D
:103D7000DCCDD2E072175054AE0010CDE275CDBD4F
:103D80003ACDBD2F8088A608200588A60E20008881
:103D90007B02887B02891E061F045F97FE1F068533
:103DA0008481891E05BF082007891E05BF0E2000DB
:103DB0001E031F05855B0281887B03887B03887B4C
:103DC0000388B6096B04B60A6B05B60B6B068481D3
:103DD000887B04B7097B05B70A7B06B70B200084F4
:103DE0006B03846B03846B03848188A600200F8897
:103DF000A604200A88A608200588A60C2000888929
:103E00007B04887B04891E081F045F971F08FE1F20
:103E1000061E085C5CFE1F08858481891E05BF00A4
:103E20001E07BF022021891E05BF041E07BF0620F2
:103E300016891E05BF081E07BF0A200B891E05BF75
:103E40000C1E07BF0E20001E031F07855B0481CDDB
:103E5000BD50CDBD4581CDBCB681450204450305AD
:103E600081450400450501450602450703814508D3
:103E700000450901450A02450B0381450C00450D2B
:103E800001450E02450F0381450004450105450229
:103E90000645030781450804450905450A06450B03
:103EA0000781450C04450D05450E06450F07814564
:103EB000000845010945020A45030B8145000C45F0
:103EC000010D45020E45030F81CDAD35AE035CF605
:103ED000A10D242FC6035C5F97D6E20D905F9097EB
:103EE00072A9540CC6035C5F97D6E20190FAB70042
:103EF000C6035C5F97D6E20D5F97B6001C540CF7C3
:103F00001D540CA601CB035CC7035CAE035DF6A198
:103F1000062406C6035DCDD4DCA601CB035DC70332
:103F20005DAE035FF6A10A2503CCBECA350003606F
:103F30002079C6035F905F9097AE0007BF0093CDD6
:103F4000D5B4C603603F00B70172BB0000D6DA3CAF
:103F50005F971C540CBF02C6035F905F9097AE0042
:103F600007BF0093CDD5B4C603603F00B70172BB55
:103F70000000D6D9F692CA02B702C6035F905F90DE
:103F800097AE0007BF0093CDD5B4C603603F00B71E
:103F90000172BB0000D6DA3C5F97B6021C540CF7E6
:103FA0001D540CA601CB0360C70360AE0360F6A1ED
:103FB000072403CCBE46A601CB035FC7035FAE0355
:103FC0005EF6A10D241AAE0013F6A1192412C60044
:103FD000135F97CDDA82C6035E5F97CDDA82200346
:103FE000CDDFE0A601CB0013C70013A601CB035E13
:103FF000C7035E81A601CB035BC7035BC6035B35CA
:104000000300005F97B60062C7035B3F032006B65C
:1040100003AB01B703B603A1032503CCC0223F05C0
:10402000205F3F02AE0008BF00BE02CDD5B43F0402
:1040300072BB0004D6E0625F971C540C90933F0261
:10404000AE0008BF00BE02CDD5B43F0472BB000471
:10405000D6E04A4390F4B7043F02AE0008BF00BE6A
:1040600002CDD5B43F0045050172BB0000D6E06229
:104070005F97B6041C540CF71D540CB605AB01B782
:1040800005B605A1082488C6035B905F9097AE0033
:1040900003BF0093CDD5B43F0272BB00029093AE34
:1040A0000080B605CDD6039F93D4E25AA100260323
:1040B000CCBF363F02AE0008BF00BE02CDD5B43F34
:1040C0000472BB0004D6E0625F971C540C90933FCF
:1040D00002AE0008BF00BE02CDD5B43F0472BB00E3
:1040E00004D6E04A90FAB7043F02AE0008BF00BE13
:1040F00002CDD5B43F0045050172BB0000D6E06299
:104100005F97B6041C540CF71D540CCCBF8F81353F
:1041100002035BCCBF088A84A4BF8886CDBCFECDD9
:10412000BD03AE5340CDDD8CCF034EAE032CCDD2BC
:104130009BCDB6E9AE032CCDD2E0CE034EBF025FDD
:10414000BF00AE0328CDB722AE0328CDD2E0AE0328
:104150002CCDD29BBE00A300002605BE02A31000FA
:104160002539AE0000CF032CAE0000CF032EAE03E6
:1041700028CDD29BA60CCDB8D7AE0328CDD2E0AEC9
:104180000328CDD29BA603CDB8D7AE0328CDD2E06D
:10419000AE0328CDD29BBE02CF0344CE034ECDD674
:1041A000C8BF025FBF00AE0330CDD2E0CE03447281
:1041B000BB0015BF065FBF04AE0330CDD29BCDB8A8
:1041C000612526A608AE5000CDE28FAE0330CDD2D9
:1041D0009BBE02CF0015CE03465D26495F5CCF0330
:1041E00046AE74CCCDE27E203CCE001572B00344C6
:1041F000BF065FBF04AE0330CDD29BCDB86124258E
:10420000A608AE5000CDE2E5AE0330CDD29BBE0293
:10421000CF0015CE0346A30001260A5FCF0346AEAA
:1042200074CCCDE27EA608AE5340CDDEC4CDBD3AFF
:10423000CDBD2F80CDBD08CDBC9E3B000CBF0EB7C1
:104240000C350100083F0B2006B60BAB01B70BB6CF
:104250000CB10B2403CCC251A6025F01B608026266
:10426000A1002716A6025F01B60802629F5F97723F
:10427000BB000EF6A40FB7092015A6025F01B60811
:1042800002629F5F9772BB000EF64EA40FB709B68D
:1042900008AB01B7085FBF06BF043F0A2035A6027E
:1042A0005F01B60802629F5F9772BB000EF64EA4D4
:1042B0000F5F97BF025FBF00CDBCFECDBD75CDBD0A
:1042C0003ACDB890CDBD9CB60AAB01B70AB608ABE3
:1042D00001B708B60AB1092503CCC15DB609A10929
:1042E0002617B609A10926DF5FB609971CFFFFBF95
:1042F000005FB60A97B3002ECECDBD75A604CDB82B
:10430000C6CDBD9CA6025F01B6080262A100278E41
:10431000A6025F01B60802629F5F9772BB000EF6AD
:104320005F9702A40002A40F02CDB8E8CDBCFECD79
:10433000BD75CDBD3ACDB890CDBD9C208ACDBD75A3
:1043400032000CCDBCBDCCBD66B701B6014D2726F1
:10435000A002273BA0022750A0022765A00A277AC7
:10436000A0022603CCC30DA0022603CCC32CA002BE
:104370002603CCC34B81A6FCC450A0C750A05FB697
:104380000097B601CDD5FB9FCA50A0C750A081A60B
:10439000F3C450A0C750A05FB60097B601CDD5FBBF
:1043A0009FCA50A0C750A081A6CFC450A0C750A09C
:1043B0005FB60097B601CDD5FB9FCA50A0C750A0ED
:1043C00081A63FC450A0C750A05FB60097B601CDEC
:1043D000D5FB9FCA50A0C750A081A6FCC450A1C75E
:1043E00050A1B601A4EFB7015FB60097B601CDD5D5
:1043F000FB9FCA50A1C750A181A6F3C450A1C750CA
:10440000A1B601A4EFB7015FB60097B601CDD5FB09
:104410009FCA50A1C750A181A6CFC450A1C750A127
:10442000B601A4EFB7015FB60097B601CDD5FB9FEB
:10443000CA50A1C750A181A63FC450A1C750A1B680
:1044400001A4EFB7015FB60097B601CDD5FB9FCAB7
:1044500050A1C750A18100070E091C1B1215383F3F
:10446000363124232A2D70777E796C6B6265484F34
:10447000464154535A5DE0E7EEE9FCFBF2F5D8DF24
:10448000D6D1C4C3CACD90979E998C8B8285A8AF94
:10449000A6A1B4B3BABDC7C0C9CEDBDCD5D2FFF884
:1044A000F1F6E3E4EDEAB7B0B9BEABACA5A28F88F4
:1044B000818693949D9A2720292E3B3C35321F18E4
:1044C000111603040D0A5750595E4B4C45426F6854
:1044D000616673747D7A898E878095929B9CB1B654
:1044E000BFB8ADAAA3A4F9FEF7F0E5E2EBECC1C6B4
:1044F000CFC8DDDAD3D4696E676075727B7C5156A4
:104500005F584D4A4344191E171005020B0C212613
:104510002F283D3A33344E49404752555C5B767103
:10452000787F6A6D64633E39303722252C2B060173
:10453000080F1A1D1413AEA9A0A7B2B5BCBB969163
:10454000989F8A8D8483DED9D0D7C2C5CCCBE6E1D3
:10455000E8EFFAFDF4F3BF063F032006B603AB0114
:10456000B703B603A10A2503CCC5653F05205F3F0D
:1045700002AE0007BF00BE02CDD5B43F0472BB003F
:1045800004D6DA3C5F971C540C90933F02AE0007B0
:10459000BF00BE02CDD5B43F0472BB0004D6D9F62D
:1045A0004390F4B7043F02AE0007BF00BE02CDD572
:1045B000B43F0045050172BB0000D6DA3C5F97B6F8
:1045C000041C540CF71D540CB605AB01B705B60519
:1045D000A10724885FB6039772BB0006F6905F9030
:1045E0009772A9D2EA5F5CB605CDD5FB9F90F4A186
:1045F000002603CCC4833F02AE0007BF00BE02CD3D
:10460000D5B43F0472BB0004D6DA3C5F971C540C4F
:1046100090933F02AE0007BF00BE02CDD5B43F0469
:1046200072BB0004D6D9F690FAB7043F02AE000779
:10463000BF00BE02CDD5B43F0045050172BB0000EE
:10464000D6DA3C5F97B6041C540CF71D540CCCC44E
:10465000DC81CDBD083B000C3F0C3F0B3F0A3F09FE
:104660003F0835CA515935535159CDDE7CA100263A
:10467000093F0C35FF5159CCC65A35005140350021
:1046800051413500514235015144352151453500E4
:1046900051463500515035FF5151357F515235004B
:1046A000516C3500516D3500514835005149350088
:1046B000514A200BBE0A1C0001BF0A3500514C7242
:1046C00004514C07BE0AA3FFFF26E97204514C08AF
:1046D0003F0C35FF5159206E3500514835FF51547C
:1046E00035FF51553500515C3500515D3500515E47
:1046F0003500515F35005164350051653500516614
:104700003500514C3500514D7202514C092013BEF9
:10471000081C0001BF087203514C07BE08A3FFFF2D
:1047200026ED7202514C193500516A3500516BCD9E
:10473000DC9CA10026043F0C20083501000C20025F
:104740003F0C35FF5159B60C32000CCCBD66CDBDC7
:104750000D3B0008CDDB7CAE02F0CDD2E0AE02E036
:10476000CDD2B7AE02F0CDD29BCDB7E4AE02F0CD44
:10477000D2E0350001EA350001EB350001EC3500EF
:1047800001ED5502F001EE5502F101EF5502F20183
:10479000F05502F301F1358001F235090008200ED1
:1047A0005FB608974FD701EAB608AB01B708B6085D
:1047B000A13E25EC3502022835400229CDB988A654
:1047C0000FC401FDB7085FB60897D601EB5F97BF2E
:1047D000025FBF00A610CDB8C6CDBD9C5FB60897DE
:1047E000D601EA5F9702A40002A47F02CDB8E8A632
:1047F00018CDB8C6CDB890CDBD9C5FB60897D60190
:10480000EC5F97BF025FBF00A608CDB8C6CDBDD094
:10481000CDBD75CDBDB6CDB890CDBD9C5FB608976A
:10482000D601ED5F97BF025FBF00CDB890AE02F436
:10483000CDD2E0320008CDBD5081CDBC993B000AFD
:10484000BF06B705350100043F092006B609AB01D4
:10485000B709B605B1092403CCC813A6025F01B697
:10486000040262A1002716A6025F01B60402629F3D
:104870005F9772BB0006F6A40FB70A2015A6025F69
:1048800001B60402629F5F9772BB0006F64EA40F4A
:10489000B70AB604AB01B7045FBF02BF003F0820F0
:1048A00026A6025F01B60402629F5F9772BB0006F4
:1048B000F64EA40F5F97BF025FBF00B608AB01B70B
:1048C00008B604AB01B704B608B10A2503CCC7602B
:1048D000A604CDB8C6A6025F01B6040262A10027F5
:1048E000C0A6025F01B60402629F5F9772BB00061A
:1048F000F65F9702A40002A40F02CDB8E820BCB670
:104900000AA1092604B6032002A60A32000ACCBD79
:104910006ACDBD08CDBD0DCDBCFEBF08B7004506B4
:104920000B5FBF0EBF0CBE081C0004F6A4E9BE0856
:104930001C0004F7B605BA00BE081C0004FABE0845
:104940001C0004F7BE081C0006F6A4CFBE081C001D
:1049500006F7BE081C0006F6BA04BE081C0006F7DF
:10496000BE081C0002F6B70A4FBE081C0002F7BEC4
:10497000081C0003F6A40FBE081C0003F7BE081CA9
:104980000003F6A4F0BE081C0003F7CDD3FCCDD283
:10499000A701CDB7E4CDBDD0B60EA4F0BE081C0073
:1049A00003F7B60FA40FBE081C0003FABE081C00D4
:1049B00003F7BE0ECDD60C9FBE081C0002F7BE0842
:1049C0001C0005F6A4F3BE081C0005F7BE081C0079
:1049D00005F6BA0BBE081C0005F75B04CCBD6335B9
:1049E000C00000A601AE500ACDC9B335C00000A674
:1049F00002AE500ACDC9B335C00000A610AE500AB1
:104A0000CDC9B335C00000A680AE500ACDC9B335BC
:104A1000C00000A601AE501ECDC9B335C00000A62F
:104A200002AE501ECDC9B335C00000A604AE501E64
:104A3000CDC9B335C00000A608AE501ECDC9B335F0
:104A4000C00000A610AE501ECDC9B335C00000A6F0
:104A500020AE501ECDC9B335C00000A640AE501EDA
:104A6000CDC9B335C00000A680AE501ECDC9B33548
:104A7000C00000A6FFAE5023CDC9B335C00000A6CC
:104A8000FFAE5028CDC9B335C00000A601AE501905
:104A9000CDC9B335C00000A602AE5019CCC9B3B71A
:104AA00001909372A90004B6014390F41C0004F72E
:104AB0001D0004B600A480A1002726B600A410A102
:104AC000002706F6BA01F72005B60143F4F79093E4
:104AD00072A9000290F6BA011C0002F71D00022024
:104AE00012909372A90002B6014390F41C0002F7E1
:104AF0001D0002B600A440A1002713909372A900E4
:104B00000390F6BA011C0003F71D000320129093D6
:104B100072A90003B6014390F41C0003F71D0003C3
:104B2000B600A420A1002712909372A9000490F669
:104B3000BA011C0004F71D000481909372A90004BF
:104B40003301B60190F41C0004F71D000481CDBDB3
:104B500008CDBD0DBF0ECDC662C602AE3F00B70187
:104B6000AE000A72B0000090AE0002CDD5D241B7BF
:104B70000B413F0920115FB6099772BB000EA620BA
:104B8000F7B609AB01B709B609B10B25E93F0AC66B
:104B900002AE5F9772BB000A905FB6099097BF00A4
:104BA00090B3002E4E3F08BE085072BB000E1C0092
:104BB00009BF0CAE02F4CDD29BCDB7DC0000000AD9
:104BC000B607AB3092C70CAE02F4CDD29BCDB7E1A5
:104BD0000000000AAE02F4CDD2E0B609AB01B7097D
:104BE00020AB5FB6099772BB000EA620F7B609ABE3
:104BF00001B709B609A10A25E9CCBD63B7009093B6
:104C00004F3D002619931C0001F6A410A100270EA9
:104C1000931C0001F6A4EFAB0A931C0001F73D00C2
:104C200035CA515935535159CDDE7CA10026064F66
:104C300035FF515981C651403D00271F931C00028A
:104C4000F6C7514490F6CDE2C7931C0001FAC75154
:104C500045931C0003F6C75146202A931C0002F618
:104C6000CDDF67C75144931C0001F6CDDF67B70065
:104C700090F6CDE2C7BA00C75145931C0003F6CDAC
:104C8000DF67C75146721F514C35FF5159720851A9
:104C9000480CCDDC9CA10026024F81A60181A60113
:104CA000815204A604CDE18AA633CDCE2FA10027E0
:104CB000F73F00A610CDE24635010000A612CDD088
:104CC00074CDC5664FCDDEE7A601AE0040CDDC2E2B
:104CD000AE07FFCDE0C0A601CDDAC2A601CDDFFC54
:104CE0004F6B01A67F6B02AE00FF1F03961C0001F5
:104CF000CDD66DAE03404FCDCFEAAE00174FCDCB32
:104D0000104FAE0010CDDC2E4FCDD81A5B0481CDF4
:104D1000BD08CDBDC34FAE0040CDDC2EAE0338CDB7
:104D2000D2FCAE03404FCDCFEACDCBB5CCBD66AE05
:104D30000000CF0338AE0000CF033AAE03404FCDA2
:104D4000CFEACCCBB5CDBD0DCDBC9989CDBDD0B70B
:104D50000935090008202DCDBD8FCDB7DC0000003E
:104D60000AB607AB30B7005FB6089772FB01B60012
:104D7000F7CDBD8FCDB7E10000000ACDBDD0B6089C
:104D8000ABFFB708BE0CA300002605BE0EA30000B3
:104D90002706B608A1FF26BF3F00450901AE000A5D
:104DA00072B00000905FB6089097BF0090B3002FDC
:104DB00028B608A1FF27225FB6089772FB01A6302C
:104DC000F7B608ABFFB70820CF5FB6089772FB01B4
:104DD000A620F7B608ABFFB708B608A1FF26EA5B26
:104DE00002CDBCB6CDBD5081CDBD08CDBD0DCDBC75
:104DF000FE52049093AE00001F01AE00001F035F3F
:104E00005ABF0ABF08203F5FBF005CBF02CDBDA9EB
:104E1000CDB875CDB6D9AE8320BF06AEEDB8BF0410
:104E2000CDB875CDBD9CCDBD82A601CDB8D7CDB8CE
:104E3000ABCDBDC3CDB7013D0C2ACCCDD28B01CDBE
:104E4000B6E9CDD2CF01CDD2A705CDD28B01CDB859
:104E50006124241E0390BF0072BB0000F65F97BF61
:104E6000065FBF04CDBD82CDB8ABCDBDC3AE0007DC
:104E7000BF0E5FBF0C20C0CDBD82CDB86C5B08CC2F
:104E8000BD63350052B0350052B1350052B2350025
:104E900052B3350052B5350052BD350052BE350112
:104EA00052B9350152BA350152BB350152BC3500F9
:104EB00052BD350052BE350052B9350052BA3500E8
:104EC00052BB350052BC350052BF350052C03500D0
:104ED00052C1350052C235FF52C335FF52C43500AE
:104EE00052C6350052C7350052C8350052C9350088
:104EF00052CA350052CB350052CC350052CD350068
:104F000052D0350152B8350052CF350052CE35005F
:104F100052C5350052B6350052B781B7023F033F44
:104F2000013F00B602A4F0B703B602A40FB7013DDB
:104F30000326075550C100032060B603A1102607C1
:104F40005550C200032053B603A12026075550C573
:104F500000032046B603A13026075550C6000320A3
:104F600039B603A14026075550C90003202CB603CB
:104F7000A15026075550CA0003201FB603A1702672
:104F8000075550CF00032012B603A18026075551C4
:104F900090000320055550CB00035F5CB601CDD5D2
:104FA000FB9FB403A10027063501000020023F004B
:104FB000B60081BF00B7033F049002B70290019092
:104FC0009FA40F5F5CCDD5FB9FB7043D032739B687
:104FD00002A101260FBE001C0004F6BA04BE001C8C
:104FE0000004F781B602A105260FBE001C0008F6DA
:104FF000BA04BE001C0008F781BE001C0005F6BA0A
:1050000004BE001C0005F781B602A1012611BE00F6
:105010001C00043304B604F4BE001C0004F781B67F
:1050200002A1052611BE001C00083304B604F4BE1C
:10503000001C0008F781BE001C00053304B604F410
:10504000BE001C0005F78135000369CDC02335F093
:105050000000A602AE5019CDC9B33F00A601AE5064
:1050600019CDC9B335010000A610CDD0743580002C
:105070000135200000A604AE5340CDDD0135070008
:1050800000A601AE5340CDD9AAA601AE5340CDE152
:10509000B3A60190AE0001AE5340CDD95B350100FF
:1050A00000A608AE5340CDE15AAE5340CDE2AE3536
:1050B000010000A611CDD074CDCD963F0090AEE991
:1050C000984FAE0010CDDEA035010000A601CDE165
:1050D00022A601CCE1F4B70090934F3F023D00358A
:1050E000CA515935535159CDDE7CA10026064F35A2
:1050F000FF515981720D514809931C0003F6B70204
:1051000020023F023D002719931C0002F6C75140C0
:10511000931C0001F6C7514190F6BA02C7514220D4
:1051200020931C0002F6CDDF67C75140931C00019D
:10513000F6CDDF67C7514190F6CDDF67BA02C751A0
:1051400042C65146721F514C35FF515972085148A1
:105150000CCDDC9CA10026024F81A60181A6018115
:10516000B7023F01B602A4F0B7013D0126273D007A
:105170002711B602A40F5F5CCDD5FB9FCA50C3C7F1
:1051800050C381B602A40F5F5CCDD5FB9F43C450D2
:10519000C3C750C381B601A11026273D002711B611
:1051A00002A40F5F5CCDD5FB9FCA50C4C750C48119
:1051B000B602A40F5F5CCDD5FB9F43C450C4C7505B
:1051C000C4813D002711B602A40F5F5CCDD5FB9FC3
:1051D000CA50D0C750D081B602A40F5F5CCDD5FBBA
:1051E0009F43C450D0C750D081BF023F0120325FDF
:1051F000B60197D6E0625F971C540C90935FB6019E
:1052000097D6E04A4390F4B7005FB60197D6E062C4
:105210005F97B6001C540CF71D540CB601AB01B7D8
:1052200001B601A11825C8BE02A3000D2505AE00D8
:105230000CBF023F0120315FB60197D6E0625F9755
:105240001C540C90935FB60197D6E04A90FAB700D1
:105250005FB60197D6E0625F97B6001C540CF71D4D
:10526000540CB601AB01B7015FB60197B30225C775
:1052700081B704A60FC45403C75403B604CA540329
:10528000C75403A6F0C45403C75403B600CA54035A
:10529000C75403A6F9C45400C754007213542FB660
:1052A00001A120260DB6014EA40FCA542FC7542FBA
:1052B000200AB601A40FCA5400C75400721154004A
:1052C0007211542FB602A1102617B602A40FCA54A9
:1052D00000C75400B6024EA40FCA542FC7542F2043
:1052E0000AB602A40FCA5400C7540072115401B682
:1052F00003CA5401C75401814FF74F1C0001F71D29
:105300000001A61F1C0002F71D0002A6FF1C0003DF
:10531000F71D0003A60F1C0006F71D0006A6FF1CC4
:105320000007F71D00074F1C0008F71D00084F1C61
:105330000009F71D00094F1C000AF71D000A4F1C49
:10534000000BF71D000B4F1C000CF71D000C4F1C31
:10535000000DF71D000D4F1C000EF71D000E4F1C19
:10536000000FF71D000F4F1C0010F71D00104F1C01
:105370000011F71D001181855C895AF65F975C5C0E
:10538000BF009672BB000089FEBF001E01EE02BF87
:10539000028581855C895AF65F975C5CBF049672D2
:1053A000BB000489FEBF041E01EE02BF0685818991
:1053B000FEBF081E01EE02BF0A8581855C895AF690
:1053C0005F9789961C000472FB015B02908990BE76
:1053D00000FF90BE02EF02908581908990BE04FF8D
:1053E00090BE06EF02908581908990BE08FF90BE26
:1053F0000AEF02908581003022336D247D02390F3F
:105400007646104010523F065B4F666D7D077F6702
:105410004848614809277B777F393F79716F76303B
:105420000E763837373F733F776D783E3E7E76662F
:105430005B39200F230802777C585E79716F740402
:105440000C743837545C7367506D781C1C7E76661C
:105450005B0006000000000000003F065B4F666D29
:105460007D077F67777F393F79714F0F010204080D
:1054700010204080AE5230CDDB0135010000A60582
:10548000CDD074A601AE011CCDD72135F00000A609
:1054900004AE5000CDC9B335400000A608AE5000A0
:1054A000CDC9B3350C00063F053F044FAE2000BF09
:1054B000025FBF00AE5230CDC8253F023F013F0022
:1054C0004FAE5230CDD8BCA60190AE0255AE523090
:1054D000CDCEC7A601AE5230CDDE305552310000E0
:1054E000C652303500035781CDBD085FBF02BF00F3
:1054F0005FBF0ABF08A6013F053F045550C700061D
:10550000B606A101260CAE2400BF0AAE00F4BF0807
:105510002026A102260AAE9470BF0A5FBF08201899
:10552000A104260CAE2400BF0AAE00F4BF08200878
:10553000AE8000BF0258BF00A607C450C0B7055FC9
:10554000B60597D6E2A4B7045FB60497BF065FBF5F
:1055500004CDBD82CDB7E4CCBD668A84A4BF888665
:10556000CDBCFECDBD03CDDE09A1002754CDE2B3F5
:10557000A640CDDD30A1002748AE0010F6A10525DC
:1055800004A60120014FC60010350200005F97B647
:1055900000629F4AC70352C6001044A10724113578
:1055A000AE50533556505372075054FB7217505437
:1055B000A6FECB0010C70010C60010CDE10FCDE253
:1055C000B3CDBD3ACDBD2F80B700721D540E721BF6
:1055D000541172155412A6BDC45415C75415721532
:1055E0005419CE00111C0006F6A43FCE00111C0079
:1055F00006F7CE00111C0007F6A4F0CE00111C0027
:1056000007F7B6004D27234A271C4A27154A270EBD
:105610004A27074A261D72145419721C540E72141C
:105620005412721C5415721A541172125415A60891
:10563000CDDCD2815F9702A40002A4F0029FA110EA
:105640002719A120271EA1302724A140272AA150D5
:105650002730A1602736A170274181A607CDDCD273
:105660004FCCDCD2A607CDDCD2A601CCDCD2A6077B
:10567000CDDCD2A602CCDCD2A607CDDCD2A603CCF0
:10568000DCD2A607CDDCD2A604CCDCD2A607CDDCCA
:10569000D2A605CDDCD2A60BCCDCD2A607CCDCD2C0
:1056A00088895EB60142891E03B6004272FB014F33
:1056B00002891E05B6014272FB015B0684815D2BE7
:1056C00006905D2B0A658150905D2B076550819097
:1056D0005020F9905020EE905D2A0290505D2B02F0
:1056E000658150659050814D2704584A26FC814DB4
:1056F0002704574A26FC81545454545481CDBD0D7F
:10570000CDBC99CDBDD0AE02ADBF084F92C708BE8B
:10571000081CFFFFBF08CDBD8FCDB7DC0000000A1D
:10572000B607AB3092C708BE081CFFFFBF08CDBD4F
:105730008FCDB7E10000000ACDBDD0BE0CA30000A4
:105740002605BE0EA3000026CDBE081C0001BF0822
:10575000BE08CDBCB6CDBD5081CDBC993B000ABFC3
:10576000083F0A35CA515935535159CDDE7CA10045
:1057700026043F0A2032721D514892C608CA514879
:10578000C75148BE081C0002FE9EC75150BE081CEF
:105790000002FE9FC75151BE081C0001F6C75152BE
:1057A000721F514C3501000A35FF5159B60A3200BB
:1057B0000ACCBD6ABF023F053F04AE0030BF0020E7
:1057C00016BE00581C0136FE9093BE0058DF01380B
:1057D000BE001CFFFFBF00BE005D26E5BE02CF017C
:1057E000383F013F002013BE0058DE013872BB0075
:1057F00004BF04BE001C0001BF00BE00A300302592
:10580000E690AE0030BE0465BF04BE0481B7014F10
:1058100002B70001B600A101261A9F4EA4F0AA0FFC
:10582000C4509EC7509E3D0127379FA4F0CA509E8A
:10583000C7509E81A10226153D0127089FCA509F8F
:10584000C7509F819F43C4509FC7509F813D0127F0
:10585000089FCA509DC7509D819F43C4509DC7500B
:105860009D818A84A4BF8886CDBCFECDBD03AE00D9
:105870000ABF025FBF00CDD86BA640AE5014CDE288
:105880006CA1002612A680AE5014CDE26CA10026B9
:10589000063503036D2010A640AE5014CDE26CA176
:1058A0000026043502036DAE0040CDDF2CCDBD3A9D
:1058B000CDBD2F808A84A4BF8886CDBCFECDBD031C
:1058C000AE000ABF025FBF00CDD86BA640AE501439
:1058D000CDE26CA1002612A680AE5014CDE26CA1E0
:1058E0000026063503036D2010A680AE5014CDE2CD
:1058F0006CA10026043501036DAE0080CDDF2CCDF8
:10590000BD3ACDBD2F8052025F1F013F003F0135E0
:10591000CA5159355351594D270A72105149350111
:105920000000202A72115149A601C4514CB7012030
:10593000051E015C1F011E01A3FFFF27043D012777
:10594000F07200514C043F0020043501000035FF87
:105950005159B6005B02815208CDBD9CAE00001FBC
:1059600005AE00001F07201FCDD28B01CDB6E9CDBB
:10597000D2CF01CDD28B01CDB86125ECCDD28B0534
:10598000CDB6E9CDD2CF05CDD28B05BE00A30000A8
:105990002605BE02A30027240CAE00001F01AE00A6
:1059A000001F0320CE5B0881B703909372A9000605
:1059B00090F6A4F81C0006F71D0006B601BA00BA5E
:1059C00002909372A9000690FA1C0006F71D0006CB
:1059D0003D032712909372A9000690F6AA081C00B6
:1059E00006F71D000681909372A9000690F6A4F7B1
:1059F0001C0006F71D00068135C00000A602AE504F
:105A000019CDC9B33F00A608AE5340CDE15A4F901F
:105A1000AE0001AE5340CDD95B4FAE5340CDE1B3A4
:105A2000AE5340CDD20C3F00A610CDD0744FCDE187
:105A3000F4CDCD963F00A611CDD07435C00000A6A0
:105A400001AE5019CCC9B3BF023F009002B701901C
:105A5000014501004D271F5FB6009772BB00021C75
:105A6000000A909FFAB7015FB6009772BB00021C54
:105A7000000AB601F7815FB6009772BB00021C00F6
:105A80000A909F43F4B7015FB6009772BB00021CF7
:105A9000000AB601F7814D2726909372A900029063
:105AA000F6A41F1C0002F71D0002909372A90002C9
:105AB000B600CDE2C790FA1C0002F71D00028190EB
:105AC0009372A9000190F6A4F81C0001F71D0001D3
:105AD000909372A9000190F6BA001C0001F71D0016
